:020000040802F0
:10000000209900205D0202088D1002088510020868
:1000100089100208AD0E0208191202080000000043
:100020000000000000000000000000009D01020828
:10003000E30E020800000000F9010208C1100208E6
:1000400077020208770202087702020877020208A4
:100050007702020877020208770202087702020894
:100060007702020877020208770202087702020884
:100070007702020877020208770202087702020874
:100080007702020877020208770202087702020864
:100090007702020877020208770202087702020854
:1000A0007702020877020208770202087702020844
:1000B0007702020877020208770202087702020834
:1000C0007702020877020208770202087702020824
:1000D0007702020877020208770202087702020814
:1000E0007702020877020208770202087702020804
:1000F00077020208770202087702020877020208F4
:1001000077020208B9100208770202087702020893
:1001100077020208BD11020877020208770202087E
:1001200077020208770202087702020877020208C3
:1001300077020208770202087702020877020208B3
:1001400077020208770202087702020877020208A3
:100150007702020877020208770202087702020893
:100160007702020877020208770202087702020883
:1001700077020208770202087702020800000000F6
:100180007702020877020208DFF80CD000F068FC62
:1001900000480047E1720208209900202C4B1968A2
:1001A0000868B0E8F04F80F30988BFF36F8F4FF015
:1001B000000080F3118870470000000008480068C4
:1001C000006880F308884FF0000080F3148862B65E
:1001D00061B6BFF34F8FBFF36F8F00DF00BF00BF6B
:1001E00008ED00E0DFF80C00016841F470010160E7
:1001F000704700BF88ED00E0EFF30980BFF36F8F19
:10020000134B1A681EF0100F08BF20ED108A20E96A
:10021000F04F106009B44FF0200080F31188BFF355
:100220004F8FBFF36F8F0CF001F94FF0000080F398
:10023000118809BC19680868B0E8F04F1EF0100F6B
:1002400008BFB0EC108A80F30988BFF36F8F704746
:10025000D8060020EFF3058070470000064880476D
:1002600006480047FEE7FEE7FEE7FEE7FEE7FEE79B
:10027000FEE7FEE7FEE7FEE7F51002088901020847
:100280002DE9F05F0546002092469B4688460646CB
:10029000814640241BE0284641464746224600F05E
:1002A0009CFA53465A46C01A914110D3114618463B
:1002B000224600F083FA2D1A67EB01084F462246CA
:1002C0000120002100F07AFA17EB00094E41201EB0
:1002D000A4F10104DFDC484631462A464346BDE826
:1002E000F09F40EA01039B0703D009E008C9121FF1
:1002F00008C0042AFAD203E011F8013B00F8013BE0
:10030000521EF9D27047D2B201E000F8012B491E0B
:10031000FBD270470022F6E710B513460A460446A2
:100320001946FFF7F0FF204610BD421E12F8013FAC
:10033000002BFBD111F8013B02F8013B002BF9D156
:10034000704730B505462A460B4612F8010B13F8E4
:10035000014B08B1A042F8D01CB1002802D06D1C9E
:10036000F1E7284630BD10B5044604E00B7800F8EC
:10037000013B03B1491C521EF8D2204610BD421C5D
:1003800010F8011B0029FBD1801A704710B50446F4
:1003900000E0401C0378002BFBD100E0401C521E03
:1003A00004D311F8013B0370002BF7D10021017039
:1003B000204610BD034611F8012B00F8012B002A3E
:1003C000F9D11846704730B505460020034600E0D5
:1003D0005B1C934205D2EC5CC85C201A01D1002C56
:1003E000F6D130BD2DE9FE4F804681EA0300C00FF3
:1003F0000C46009021F0004123F00045B8EB0200CC
:10040000A94105D24046214690461C460B4602466D
:1004100023F00040104347D0270DC7F30A00C3F371
:100420000A510290401A019040286BDAC3F313007E
:1004300040F4801B0098924620B10023D2EB030ABF
:1004400063EB0B0B01985946C0F14002504600F097
:10045000B5F906460D4650465946019A00F0CDF9C9
:1004600010EB08006141002487EA115284EAE77327
:100470001A4340D0009A62B3019A012A4FEA075208
:1004800015DC001B61EB02014FF0004202EA07524B
:10049000CDE90042001C41F5801132462B4600F0A8
:1004A00061FA03B0BDE8F08F40462146F9E7001B32
:1004B00061EB0201001C41F5801300185B4120181C
:1004C000A2F5001747EB030140EAD570B6196D415C
:1004D00011E06D084FEA360645EAC0754FEA07524B
:1004E000001B61EB0201001C41F5801149084FEA35
:1004F00030000019514132462B4603B0BDE8F04FA1
:1005000000F021BA0098012240000023D0EB020243
:1005100063EBE073009821464FEAE074B8EB00000B
:1005200061EB0401E9E783F000435BE781F0004100
:1005300058E72DE9FE4F81EA030404F0004421F05E
:10054000004100944FF0000B23F0004350EA0104F7
:100550005ED052EA03045BD0C3F30A54C1F30A55D8
:100560002C44A4F2F3340194A0FB0254C1F3130110
:1005700041F48011C3F3130343F4801301FB0244DD
:1005800000FB034E840A970A44EA815447EA8357E2
:10059000A4FB076802958D0A05FB07854FEA932C9B
:1005A00004FB0C542705029D4FEA065847EA16370C
:1005B000B5EB08056EEB070C870E920E47EA811724
:1005C00042EA8312A7FB0201B6EB0B0164EB0004C5
:1005D0002B0D43EA0C335E1844EB1C50DA465146AF
:1005E000E7FB0201C5F313044FEA0B3343EA14534C
:1005F0004FEA0432019C43EA0603A4F10C0402947E
:10060000009CCDE900B400F0ADF903B0BDE8F08F77
:1006100000200146F9E72DE9F04D81EA030404F0DA
:10062000004B21F0004514464FF0000A23F0004132
:1006300050EA050220D054EA01021DD0C5F30A5742
:100640000246C5F31303C1F31300C1F30A5640F485
:10065000801543F48013A7EB0608101BD64608F25A
:10066000FD3873EB050002D308F1010801E0921890
:100670005B41B8F1000F03DA00200146BDE8F08DC0
:1006800000204FF48011064684460EE0171B73EBE2
:10069000050705D3121B63EB050306434CEA010C67
:1006A00049084FEA300092185B4150EA0107EDD14A
:1006B00052EA030012D082EA040083EA05010843EB
:1006C00005D0101BAB4106D20122002306E0002218
:1006D0004FF0004302E06FF0010253101AEB0600E6
:1006E0004CEB085110EB0A0041EB0B01BDE8F04D5B
:1006F00000F029B970B5C1F30A5201F00045002499
:10070000C1F3130140F2FF3341F480119A4201DA40
:10071000002070BD40F233439A42A2F2334203DC20
:10072000524200F05AF800E090402C43F1D0404291
:1007300070BD00F0004230F000400AD0C10D01F55C
:100740006071C0F3160042EA0151C208400711432C
:10075000704700200146704701F0004330B421F09B
:10076000004150EA010206D00A0DA2F56072C1F301
:100770001301002A02DC30BC00207047440F44EA19
:10078000C104C100E01830BC00EBC25000F0A4B8B6
:1007900030B50B46014600202022012409E021FA51
:1007A00002F59D4205D303FA02F5491B04FA02F54E
:1007B0002844151EA2F10102F1DC30BD202A04DB21
:1007C000203A00FA02F1002070479140C2F1200364
:1007D00020FA03F3194390407047202A04DB203AA3
:1007E00021FA02F00021704721FA02F3D040C2F151
:1007F00020029140084319467047202A06DBCB1798
:10080000203A41FA02F043EAE07306E041FA02F3CB
:10081000D040C2F1200291400843194670470000C1
:1008200000487047FCE1020810B50446FFF7F8FFE6
:100830000068005D00F0010010BD00000FB400234F
:1008400000B589B00CA900910B996FF00042CB6004
:100850001E4B06931E4B07930423CDE901321D4A1C
:10086000089202466B46002000F08CF909B05DF852
:1008700014FB70B586B006464FF0FF300091CDE90D
:100880000101002015460C4604903246694604A832
:10089000FFF7D4FF03460498211825B108B10A4692
:1008A00000E022462A6000280DD0002B02DD0098CF
:1008B000884208D0081B0094CDE9010432466946FD
:1008C00004A8FFF7BBFF06B070BD0000BD0D020815
:1008D000DB0D0208290802080029A8BF7047401C48
:1008E000490008BF20F00100704710B4B0FA80FC46
:1008F00000FA0CF050EA010404BF10BC704749B183
:10090000CCF1200421FA04F411FA0CF118BF0121F2
:1009100021430843A3EB0C01CB1D4FEA00614FEAD2
:10092000102042BF002010BC704700EBC3501044A1
:100930000029A4BF10BC7047401C490008BF20F02C
:10094000010010BC704710B5141E73F1000408DAE2
:10095000401C41F1000192185B411A4301D120F083
:10096000010010BD2DE9F04D92469B4611B1B1FA40
:1009700081F202E0B0FA80F220329046FFF71EFFCB
:1009800004460F4640EA0A0041EA0B0153465A4624
:10099000084313D0114653EA010019D0C8F14002B0
:1009A0005046FFF71AFF05460E4650465946424646
:1009B000FFF704FF084305D0012004E02046394634
:1009C000BDE8F08D0020054346EAE0762C4337432E
:1009D0000A986305E40AA0EB08000022FD0A44EA35
:1009E00047540A3002D500200146E9E701051019F5
:1009F0006941DDE9084500196941BDE8F04DA2E70C
:100A0000C1F30A52C1F3130140F2FF3341F48011E4
:100A10009A4202DA00200146704740F233439A427C
:100A2000A2F2334202DC5242FFF7D7BEFFF7C6BE46
:100A300030B5041E71F1000404DB4FF00044404265
:100A400064EB0101141E73F1000405DB1C464FF03A
:100A50000043524263EB0403994208BF904230BD09
:100A6000064C074D06E0E06840F0010394E80700FB
:100A700098471034AC42F6D3FFF78AFBF4E502083E
:100A800014E602082DE9FF4F087881B09946FF2847
:100A900005D0491C2D2804D00024002308E00023A1
:100AA0000BE00124F9E703EB830300EB4303491C4C
:100AB0000878FF28F7D104B15B4200200090147839
:100AC00001462D2C01D02B2C04D1521C2D2C12D0E0
:100AD0000024009400251678FF2E0ED00A24A0FBD7
:100AE00004C801FB0481002700FB0711521C16EB10
:100AF0000C006941EFE70124EBE7994450EA010259
:100B00000ED00024AA4D2646DFF8A88200F076F920
:100B100082468B46B9F1000009DAC9F100071BE0F3
:100B200001980021C0E9001105B0BDE8F08F07462B
:100B300012E0F80707D022462B4630464146FFF721
:100B4000F8FC0646884622462B4610461946FFF713
:100B5000F0FC04460D467F10002FEAD1B9F1000FDA
:100B6000324643465046594602DAFFF754FD01E04B
:100B7000FFF7DFFC009A0AB181F00041019AC2E957
:100B80000001D1E72DE9FF4F1F468DB0D7E901469F
:100B90004FF0FF382E2045464FF000090B90B96901
:100BA0006D1C0E988847396A824688470028F6D11E
:100BB000BAF1FF3F0AD024F4D064002E11DDBAF15F
:100BC0002B0F08D0BAF12D0F0BD102E0404611B027
:100BD000ABE744F48064B9696D1C0E98884782467F
:100BE000761E6946600501D52D2000E02B208DF88A
:100BF000000001F1010B0DF1200809E0B9696D1C3D
:100C00000E98884782460F9844F40074761E05605B
:100C1000002E02DDBAF1300FF0D00B998A453ED19B
:100C200044F0800406E00F99681CA9F1010944F41E
:100C300000740860B9696D1C761E0E98884782465C
:100C40003028F0D02BE00B998A4505D1200603D43B
:100C500044F08004761E18E0504600F0CFFB08B345
:100C60000DF11301761E44F400748B4508D2AAF1ED
:100C700030000BF8010B200607D5A9F1010003E0B5
:100C8000200602D409F101008146A00502D50F9982
:100C9000681C0860B9696D1C0E9888478246002E52
:100CA000D1DC53E0002E51DDBAF1650F02D0BAF16C
:100CB000450F4BD1A00549D5B9696D1C24F440748A
:100CC000761E0E9888478246002E0CDD2B2804D015
:100CD000BAF12D0F07D144F48074B9696D1C0E98D8
:100CE00088478246761EE00501D52D2100E02B21A4
:100CF00008F8011BCDF82C8021E00DF12901761EAA
:100D000044F4007488450CD2AAF1300010F0FF00C2
:100D100088F8000002D10B99884509D908F101082B
:100D200006E0E00501D5244801E042F20F7081465B
:100D3000B9696D1C0E98884782460F980560002E91
:100D400004DD504600F05AFB0028D6D1F9690E9810
:100D50008847FF208BF8000088F8000000200690EC
:100D600007904B466A4608A906A8FFF78BFEA00528
:100D700002D46FF001002AE714F0240F0AD0E00734
:100D800014D1DDE906123868031D3B600068C0E934
:100D900000120BE0DDE90601FFF7DEFC0146E0078B
:100DA00004D13868021D3A600068016028460EE7E9
:100DB000000024400000F03FF1D8FFFF426842B13C
:100DC000016811F8013B23B1521EC0E90012184618
:100DD00070470121C160881E704742685AB1C368DC
:100DE000016843B983688B4205D0491E521CC0E993
:100DF0000012002070474FF0FF3070470EB540F2F0
:100E0000334202920022CDE900221346FFF7AAFDE9
:100E100003B000BD70B58D1810F8014B14F003023B
:100E200001D110F8012B231106D110F8013B03E08A
:100E300010F8016B01F8016B521EF9D1ABB110F83B
:100E4000012B04F00C048A1A0C2C03D0A2EB8412A0
:100E50009B1C08E010F8014BA2EB0422F8E712F803
:100E6000014B01F8014B5B1EF9D5A942D4D30020F8
:100E700070BD000010B505F0BFF803F02FFB0AF0BD
:100E80000FF801F029FA032006F0CCF9032006F050
:100E9000E7F9052008F098F806200BF075FC0248E9
:100EA00000680BF055F910BDD406002000BFFEE726
:100EB00030B502460023002402B109B9184630BDFE
:100EC000002409E0155DE818C51700EB15652D1223
:100ED000A0EB0525EBB2641C8C42F3DB5842C0B298
:100EE000EDE7704700487047348D002030B5034669
:100EF000002400200025156022E000E05B1C1D7826
:100F000015B11D78202DF9D100E05B1C1D7815B1BD
:100F10001D78202DF9D01D788DB1641C8C420FD125
:100F2000184603E015686D1C15605B1C1D7815B133
:100F30001D78202DF6D1156805B9002002E001E0EA
:100F40008C42DAD300BF30BD2DE9F0470446884615
:100F5000914601262E48006898BB2E482C4908600F
:100F60002AE02B480068006807683846FFF707FA50
:100F700005462A4639462046FFF725FAB8B9605D8E
:100F8000202801D0605D90B921480068006890F980
:100F90000C0000280ADB204606F041FD1C490968C8
:100FA000096891F90C10884200D0002608E0184822
:100FB0000068406816490860154800680028D0D1CC
:100FC00000BF1348006848B146B94A461249404636
:100FD000FFF7C9F900200E49086016E00C480068C8
:100FE00068B10B480068006822464946836840465D
:100FF000984706464EB900200549086005E04A4674
:1010000006494046FFF7AFF900263046BDE8F087B5
:10101000440700203807002014E502086CE50208A8
:1010200070B50546002655B900BF202080F3118811
:10103000BFF34F8FBFF36F8F00BF00BFFEE70820E5
:1010400007F026FC044654B900BF202080F3118825
:10105000BFF34F8FBFF36F8F00BF00BFFEE764B1D8
:101060000AF032FF25600020606005480068446097
:10107000034804600AF052FF0126304670BD0000AC
:101080004007002000BFFEE700BFFEE770470000FA
:10109000BFF34F8F0648006800F4E060054908433D
:1010A000001D03490860BFF34F8F00BFFEE700003B
:1010B0000CED00E00000FA0510B508F073FE10BD5D
:1010C00010B500BF202080F31188BFF34F8FBFF30E
:1010D0006F8F00BF0CF0DCF818B14FF0805004495E
:1010E000086000BF002080F3118800BF10BD000021
:1010F00004ED00E008B52D48006840F470002B496D
:1011000008602B48006840F0010029490860284821
:101110000830006840F08000254908310860002050
:10112000009002E00098401C00904CF25031009872
:101130008842F7D31E480830006840F090001C49F0
:10114000083108600020009002E00098401C0090E8
:101150004CF2503100988842F7D3154808300068A7
:1011600020F0030012490831086011480068114955
:1011700008400F4908600846006820F48020086095
:1011800000200B490831086000BF0948083000689A
:1011900000200028F9D108480549091D08600020F1
:1011A00003490C3108600AF0D7F908BD88ED00E06A
:1011B00000380240FFFFF6FE103000241CB500206E
:1011C000019000900F4910480AF0F0FDC8B10E4898
:1011D0000AF036FDC0B200900C490B480AF0D9FD68
:1011E000002301AA69460A4800680BF0F3FC019845
:1011F00038B14FF0805007490860BFF34F8FBFF3FD
:101200006F8F1CBD0403040000500040050305005F
:10121000AC00002004ED00E000BFFEE70FB4054B7A
:1012200010B503A9044A029800F0F0F810BC5DF86C
:1012300014FB000049500208500700200000000085
:1012400000B583B09FED0A0B0A4601468DED000BF9
:101250006846FFF70EFB9DED000B51EC100BFFF7FE
:101260007BFA03B000EE100A00BD00000000000091
:10127000000000000000000002E008C8121F08C1C2
:10128000002AFAD170477047002001E001C1121F07
:10129000002AFBD1704700002DE9FF5FDDE9022045
:1012A000010DDDF838B0024318D044F61050A1F219
:1012B000FF3141430D140F98012820D0A5EB0B00FE
:1012C000401C5FEA000A4FF00004474EDFF81C9113
:1012D000A046504616D5CAF1000728E00F98012411
:1012E00043A2012808D0002100980F9BC0E90021EB
:1012F000C0E90243BDE8FF9F6FEA0B01F4E7CBF1C1
:101300000000DEE7074612E0F80707D02246334622
:1013100040464946FFF70DF9804689462246334646
:1013200010461946FFF705F904460E467F10002FB8
:10133000EAD1DDE90201BAF1000F42464B4602DA7A
:10134000FFF7F7F801E0FFF766F904460E460022C2
:10135000284BFFF76DFB03D84FF0FF30014607E045
:101360000022254B20463146FFF73CF8FFF748FBAB
:10137000102409E0002C0ADB0A220023FEF780FF7C
:10138000019B30321A55641E50EA0102F2D1641CEE
:10139000019AC4F1110314440F9A012A03D00122C7
:1013A00008430DD10AE0084304D000204FF0110B90
:1013B0000F9080E7A3EB0B056D1E0DE05B4504DD90
:1013C0004FF0000205F1010504E003DA4FF00002DE
:1013D000A5F10105002AECD000980F99C0E902316F
:1013E000C0E9004586E70000000024400000F03F0F
:1013F000300000000000F0430000E03F30380A28D1
:1014000001D2012070470020704700002DE9FF4FF6
:1014100095B09B468946064600250FE2252877D1E0
:1014200000242746F84A0121059400E0044316F8F9
:10143000013F203B01FA03F01042F7D130782A280F
:1014400011D06FF02F033078A0F13002092A16D89E
:10145000059A44F0020402EB820203EB42021044BC
:10146000761C0590EFE759F8042B0592002A03DA61
:10147000504244F40054059044F00204761C307845
:101480002E2816D116F8010F44F004042A280DD096
:101490006FF02F023078A0F13003092B09D807EB49
:1014A000870302EB4303C718761CF3E759F8047B64
:1014B000761C30786C280FD006DC4C2817D06828B2
:1014C0000DD06A2814D104E0742810D07A280FD1E6
:1014D0000DE044F400140AE044F4801401E044F404
:1014E00040147278824202D104F58014761C761C76
:1014F000307866280BD013DC582877D009DC002818
:1015000075D04528F6D04628F4D047281AD19DE159
:1015100018E0632835D0642879D0652812D195E188
:10152000702873D008DC6728F1D069286FD06E2846
:101530000DD06F2806D1B5E073282CD0752875D052
:10154000782874D05A46179990476D1C75E1C4F3FA
:101550000250022809D003280DD0D9F80010042821
:101560000DD00D6009F1040967E1D9F80010EA1700
:10157000C1E90052F6E7D9F800100D80F2E70D70CE
:10158000F0E719F8041B8DF8001000208DF8010019
:10159000EA46012003E059F804AB4FF0FF30610741
:1015A0004FF0000102D40DE008F101018846B94274
:1015B0000FDA8045F8DB1AF808100029F4D108E0AA
:1015C00008F1010188468142FADB1AF80810002967
:1015D000F6D105985B46A0EB080721463846179AD6
:1015E00000F094FA284400EB080507E04DE029E1FB
:1015F0000DE01AF8010B5A4617999047B8F1010807
:10160000F7D25B4621463846179A13E142E00A2298
:101610000092C4F302524FF0000A022A08D059F88F
:1016200004CB032A4FEAEC710AD00DE029E02AE04E
:1016300009F1070121F00702F2E802C1914609E031
:101640000FFA8CFC4FEAEC71042A03D14FFA8CFCA0
:101650004FEAEC71002907DA0A460021DCF1000CA0
:1016600061EB02012D2202E0220504D52B228DF828
:101670000420012203E0E20701D02022F7E7904690
:1016800059E00A2102E010220DE010214FF0000A7B
:1016900000910BE010224FF0000A44F004040827E8
:1016A000009203E008224FF0000A0092C4F30252B5
:1016B000022A05D059F804CB0021032A08D009E0FA
:1016C00009F1070121F00702F2E802C1914605E0A5
:1016D0001FFA8CFC042A01D10CF0FF0C4FF000081B
:1016E000220728D5702806D0009B83F0100353EA08
:1016F0000A0305D00EE040228DF80420012208E004
:101700005CEA010206D030228DF804208DF8050035
:1017100002229046009B83F0080353EA0A030AD191
:101720005CEA010201D1620705D530228DF8042060
:101730004FF001087F1E582804D034A003900EA853
:1017400002900DE036A0F9E753466046009AFEF796
:1017500097FD84460398825C0298401E02900270B6
:101760005CEA0100F0D1029806A9081A00F1200AEB
:10177000600702D524F4803400E00127574502DDDC
:10178000A7EB0A0000E0002000EB0A01009005989A
:101790004144401A0590E00306D45B462146179A5F
:1017A000059800F0B3F90544002706E001A85A4661
:1017B000C05D179990476D1C7F1C4745F6DBE00321
:1017C0000CD55B462146179A059800F09FF9054411
:1017D00004E030205A46179990476D1C0099481E26
:1017E00000900029F5DC08E0029802995A4600783A
:1017F000491C0291179990476D1CBAF10001AAF19A
:10180000010AF1DC65E100000928010030313233C2
:10181000343536373839616263646566000000002C
:101820003031323334353637383941424344454616
:101830000000000000F058F90544761C30780028BC
:101840007FF4ECAD19B02846BDE8F08F620700D4F4
:10185000062709F1070222F0070CFCE80223E14603
:1018600003F000485FEA080C02D00FF2702C0DE084
:101870005FEA045C02D50FF2682C07E05FEAC47CE3
:1018800002D00FF2602C01E0AFF2700C4FF0FF3885
:1018900023F00043CDF850C065280CD006DC452865
:1018A00009D046281DD047283DD13DE0662818D0F4
:1018B00067287ED138E00021112F01DB112000E0E4
:1018C000781CCDE9000106A90EA8FFF7E5FCDDE9CB
:1018D0000F010E9A03910021009207F1010A049171
:1018E0004DE04FF000400097CDE9011006A90EA889
:1018F000FFF7D2FCDDE90F0203920E9B1199002243
:10190000DDF80CA00093049211B9791C00EB010AD8
:10191000B7EB0A0004D4C0F1FF3007F1010A0490CC
:10192000AAEB0700019044E0012F00DA0127002113
:10193000112F01DD112000E03846CDE9000106A994
:101940000EA8FFF7A9FCDDE90F010E9A0391002113
:1019500004910092BA4621070CD40399514500DA4C
:101960008A46BAF1010F05DD009AAAF10101515C26
:10197000302908D0B84202DA10F1040F06DA01214A
:10198000CDE9011015E0AAF10101E9E7002805DC25
:10199000049901440491AAEB000102E0411C514565
:1019A00000DD8A460499401A401C01904FF0004027
:1019B0000290200704D40198504501DBCDF8048043
:1019C00000208DF84F0002980DF14F07B0F1004F45
:1019D00025D02B200E9002984FF0020800280CDA38
:1019E000404202902D200E9007E00A210298FEF757
:1019F000CFFE3031029007F8011DB8F10001A8F1C7
:101A00000108F2DC02980028EFD1791E0E980870C8
:101A1000307800F0200040F0450007F8020D12A8D1
:101A2000C01B00F107081498007800B1012000EBFA
:101A30000A01019801EBE07105984144401A401EEB
:101A40000590E00306D45B462146179A059800F0FE
:101A50005DF805441498007818B15A4617999047D4
:101A60006D1CE00324D55B462146179A059800F0CB
:101A70004DF805441CE00498002807DBDDE903016C
:101A8000884203DD0098405C179901E017993020E7
:101A90005A469047049805F10105401C04900198AE
:101AA000401E019004D12E205A46179990476D1C74
:101AB000BAF10001AAF1010ADDDC05E017F8010B1B
:101AC0005A46179990476D1CB8F10001A8F101081A
:101AD000F4DC5B462146179A0598ABE62D00000022
:101AE0002B000000200000002DE9F04104460025F5
:101AF0001E461746880404D405E039462020B04726
:101B00006D1C641EF9D52846BDE8F0812DE9F04131
:101B1000044600251E469046C80301D5302700E044
:101B20002027880404D505E041463846B0476D1C9F
:101B3000641EF9D52846BDE8F081816841F00801AE
:101B4000816000BF816801F008010029FAD1816835
:101B500041F00401816000BF816801F004010029A7
:101B6000FAD17047A1B100F4800232B1134A126871
:101B700042F48002124BC3F8042300F40002DAB1ED
:101B80000E4A126842F400020D4BC3F8042313E01E
:101B900000F4800232B1094A126822F48002084B34
:101BA000C3F8042300F4000232B1044A126822F49C
:101BB0000002034BC3F804237047000004230140D4
:101BC0000020014030B5012902D0022920D10FE0C8
:101BD0006AB1102A0BD8C36A23F47003C362C36AC4
:101BE000541E4FF4700505EA04542343C36210E009
:101BF0006AB1042A0BD8836B23F440138363836B8D
:101C0000541E4FF4401505EA04542343836300E057
:101C100000BF00BF30BD00000649096821F4E02183
:101C2000054AC2F804131146D1F804130143C2F85F
:101C300004137047042301400020014021B1826851
:101C400042F40062826003E0826822F400628260F3
:101C5000704710B540F6081007F0F0F840F608108D
:101C600007F0DAF810BD816801F0010119B9816847
:101C700041F0010181607047012902D0022912D18F
:101C800008E0836823F040538360836843EA02736B
:101C9000836009E0836823F440138360836843EA28
:101CA0000253836000E000BF00BF7047012902D0EB
:101CB000022910D107E0836823F070638360836892
:101CC0001343836008E0836823F470238360836890
:101CD0001343836000E000BF00BF704702688A437F
:101CE000026070470246002013680B4003B10120D8
:101CF0007047F0B51D4606290CDA436B01EB8107EE
:101D00001F26BE40B34301EB810602FA06F63343B9
:101D1000436322E00C290EDA036B8E1F06EB860765
:101D20001F26BE40B3438E1F06EB860602FA06F658
:101D30003343036311E010290FDAC36AA1F10C06E3
:101D400006EB86071F26BE40B343A1F10C0606EB47
:101D5000860602FA06F63343C3620A2A0CDA0469DD
:101D600002EB42070726BE40B44302EB420605FAE7
:101D700006F63443046111E0122A0FDCC468A2F1B4
:101D80000A0606EB46070726BE40B443A2F10A0640
:101D900006EB460605FA06F63443C460F0BD01467C
:101DA000C86C80B27047000070B52DED088B9FEDB8
:101DB0005B0A10EE106A002562E02C46584810F8C5
:101DC0002410584804F0B4FA574901EB0411088074
:101DD000554800EB0410008800EE100AB8EE400AE7
:101DE000DFED520A20EE200ADFED510A80EE201AC4
:101DF0004D4800EB041080ED021A052C1FD14D4810
:101E000000EB840090ED000A474800EB0410D0ED91
:101E1000020A20EE200A444800EB041080ED030A79
:101E2000414800EB041090ED030A04EB840000EB42
:101E3000C400414901EB800080ED050A1EE03D48E9
:101E400000EB840090ED000A374800EB0410D0ED61
:101E5000020A20EE200A344800EB041080ED010A4B
:101E6000314800EB041090ED010A04EB840000EB14
:101E7000C400314901EB800080ED050A681CC5B241
:101E8000062D9ADB1021274804F052FA00EE100AC2
:101E9000B8EE400A10EE106A0AF016F83046FEF767
:101EA00048FC41EC1A0B9FED250B53EC102BFEF771
:101EB00040FB41EC190B9FED230B53EC102BFEF76D
:101EC000AAFB41EC180BFEF747FC06463046FEF72E
:101ED00030FC41EC1B0B9FED1D0B53EC102BFEF760
:101EE00025FB41EC1A0B9FED1B0B53EC102BFEF75F
:101EF00092FB41EC190B9FED190B53EC102BFEF7E5
:101F000071FA41EC180BFEF7F5FB0B49C1F8B4016F
:101F10000AF004F8BDEC088B70BD00000000000062
:101F20000402002000200140D02B00203333534016
:101F3000000080451C0200203402002066666666B0
:101F400066660A40000000000000B040E17A14AE6E
:101F500047E1F63F22FDF675E09C713F000000006E
:101F600000003940012902D002290AD104E0826828
:101F700042F08042826005E0826842F48002826022
:101F800000E000BF00BF7047AAB101F480731BB12D
:101F9000436843F48073436001F480631BB143687A
:101FA00043F48063436001F00203CBB1836843F0E4
:101FB0000203836014E001F480731BB1436823F4CF
:101FC0008073436001F480631BB1436823F4806332
:101FD000436001F002031BB1836823F002038360B6
:101FE000704700000649096821F01F01054AC2F840
:101FF00004131146D1F804130143C2F804137047C7
:10200000042301400020014010B50024042000F00A
:1020100017F9044604F00404204610BD10B500244E
:10202000042000F00DF9044604F00804204610BD19
:1020300070B50446204605F08BFBE078042861D19A
:102040006079217900EB012000043F4908603F4896
:1020500000683F49884204D13B4800683D498842B6
:1020600014D03A4800683A49C943884204D13648F6
:1020700000683949884209D034480068B0F1FF3F10
:102080000BD1314800683349884206D12E48016897
:1020900032A0FFF7C3F8032070BD3A480078B8B902
:1020A0002948026802F58032016837A0FFF7B6F8C8
:1020B0002548016801F58031006802F0C1FD054640
:1020C0002DB1294639A0FFF7A9F80320E4E700BFA6
:1020D0001D4800681F49884202D101203B49087011
:1020E000194800681C49884202D10220374908700B
:1020F000012024490870354802781348016834A04B
:10210000FFF78CF8E078A0B960780F49096801EB17
:102110000021A0780E182178221D304602F00AFE18
:1021200005462DB1294633A0FFF778F80320B3E721
:1021300000BFE078012802D1032035490870012052
:1021400000F0ECFA0020A7E7EC00002000400008B7
:10215000A55A5AA500000208000006084552524F31
:1021600052204E4F20555044415445204355525221
:10217000454E5420534543544F52205B30782558E8
:102180005D0D0A00F0000020666C6173685F657287
:102190006173655F736563746F72205B25303458BB
:1021A0005D5B253034585D0D0A0000004552524FEA
:1021B0005220666C6173685F65726173655F7365F9
:1021C00063746F72205B25645D0D0A00E4000020DB
:1021D00062617365416464723D5B307825585D20AF
:1021E000675F7570646174655F77686F3D5B2564D8
:1021F0005D0D0A004552524F522061726D5F75703D
:1022000064617465205B25645D202121210D0A0035
:10221000E500002010B5062000F012F820F0800440
:102220002146062000F015F810BD10B5062000F07C
:1022300007F840F080042146062000F00AF810BD9F
:1022400070B50446FF25204608F00EFD05462846D9
:1022500070BD70B504460D462946204608F058FD6D
:1022600070BD000030B589B00446202101A8FEF7FA
:1022700051F8204605F06CFAE07804280BD160791B
:10228000217900EB012000040D490860084601682F
:102290000CA0FEF7C3FFE07878B9607808490968B8
:1022A00001EB0021A0780D1822782946201D08F0A6
:1022B00050FD012000F032FA00BF002009B030BD0F
:1022C000E800002062617365416464723D5B3078B0
:1022D00025585D0D0A00000008B5002000906A46F0
:1022E0000421124802F0EDFC9DF8000018B910A07E
:1022F000FEF794FF08BD9DF80000282807DA9DF836
:102300000010C82211FB02F009F0F4FE0AE09DF86B
:102310000000802806D10E490978C82211FB02F07E
:1023200009F0E8FEFFF781FF00BFE3E700002D089A
:10233000205B706F776572206F66665D2020737416
:102340006172742064656C61793A2030200D0A0056
:10235000080100202DE9F04105460E460024AF1982
:1023600005E015F8011BA0B209F024F90446BD42AE
:10237000F7D3A0B2002109F01DF904462046002140
:1023800009F018F904462046BDE8F08170B506460C
:102390000D46002434E00020285501222DE00120C4
:1023A00000EB4400801A315C30290ADB392908DC53
:1023B000A1F1300093009840C0B22B5D184328551E
:1023C0001AE0612909DB662907DCA1F157009300B7
:1023D00098402B5D184328550EE0412909DB46291A
:1023E00007DCA1F13700930098402B5D1843285576
:1023F00002E009B9002070BD521E002ACFDA641C29
:102400003046FDF7BCFFA042C5D80120F3E700002D
:1024100070B504460D4600202071401EE06229463A
:10242000204605F009F808B1032070BD94F82E127B
:1024300094F82F0241EA00204AF65521884201D043
:102440000220F2E794F86900010694F8680041EA76
:10245000004194F8670041EA002094F866100843B0
:1024600020F07F400D49884201D10020DDE794F83B
:102470008500010694F8840041EA004194F8830045
:1024800041EA002094F88210084320F07F4003497D
:10249000884201D10020C8E70120C6E74641540028
:1024A000024600E0521C107810B110788842F9D131
:1024B000107870470246891E5069801E884201D8F4
:1024C000002070479378906A01FB0300F9E7000051
:1024D00038B51D240B48009002E00098401E009083
:1024E000802008F04BF910B900980028F5D1009829
:1024F00010B91324204638BD034808F039F92046A6
:10250000F9E70000A0860100FF07C00010B5002415
:102510000420FFF795FE044604F00204204610BD97
:102520002DE9F04704468946B9F1000F06D1E76866
:1025300017B16069B84215D8012713E04946204613
:1025400003F0E2FA0646022E02D20120BDE8F0872F
:10255000701C08B93046F9E76069B04201D93046CD
:10256000F4E74F463D4600BF6D1C6069A84204D8A1
:102570000225BD4201D90020E8E72946204603F0A4
:10258000C3FA064606B909E0701C08B1012E01D154
:102590003046DBE7BD42E7D10020D7E700BF6FF050
:1025A00070422946204606F0AEF88046B8F1000F8A
:1025B00008D1B9F1000F05D02A464946204606F059
:1025C000A2F88046B8F1000F0BD1E5602069401CED
:1025D00078B12069401E2061607940F0010060718F
:1025E00007E0B8F1010F02D14FF0FF3000E0012009
:1025F00005462846AAE700002DE9F35F8A46DAF887
:10260000007000E07F1C38782F28FBD038785C28D9
:10261000F8D0009886690B222021304604F002FF92
:102620000025A946AB464FF0080800BF58460BF1FD
:10263000010B3C5C202C03DD2F2C01D05C2C00D145
:1026400034E02E2C01D0C1450ED3B8F1080F01D1D2
:102650002E2C02D00620BDE8FC9F4FF008094FF059
:102660000B08A806050EE1E7802C03DB45F0030507
:102670000620F0E7214622A0FFF712FF08B106204E
:10268000E9E7412C04DB5A2C02DC45F0020508E0A6
:10269000612C06DB7A2C04DC45F00105A4F1200056
:1026A000C4B2484609F101093454BFE700BF07EB43
:1026B0000B00CAF80000202C01DC042000E0002000
:1026C0000446B9F1000F01D10620C4E73078E528AF
:1026D00001D105203070B8F1080F01D1A806050E10
:1026E00005F00300012801D144F0100405F00C00AE
:1026F000042801D144F00804F4720020ABE7000084
:10270000222A2B2C3A3B3C3D3E3F5B5D7C7F000008
:10271000014600E0491E0029FCD1704710B504466F
:10272000204609F0E7FC10BD002101E000BF491C74
:1027300043F609524243B1EB821FF7D370472DE9AC
:10274000F04104460E460021204600F062F905469D
:10275000EDB9002700BF2169206804F06DFE054631
:1027600005B113E060690078E52802D0606900785F
:1027700020B9781C0746B04201D107E000270121AB
:10278000204600F038F80546002DE4D000BF042DA7
:1027900000D107252846BDE8F0812DE9F041044627
:1027A0000021204600F035F9054615B12846BDE860
:1027B000F08100BF2169206804F03EFE054605B1A6
:1027C00016E0666937780FB9042511E0F07A00F059
:1027D000080030B90B223046A16904F003FE00B9AD
:1027E00006E00021204600F006F80546002DE1D065
:1027F00000BF2846DBE72DE9F04104468846E08823
:10280000461CB0B208B1206910B90420BDE8F081BF
:1028100021684889C11700EBD1614911B6FBF1F27B
:1028200001FB1261002971D12069401C2061E06820
:1028300028B920680089B04268D80420E6E72168FA
:102840004889C11700EBD1614911B6FBF1F122684B
:102850009278521E1140002958D1E168206803F097
:1028600053F90546012D01D80220CFE7681C08B9AD
:102870000120CBE720684069A84241D8B8F1000F99
:1028800001D10420C2E7E1682068FFF749FE054650
:102890000DB90720BAE7012D01D10220B6E7681C67
:1028A00008B90120B2E7206808F0AFFD08B10120A7
:1028B000ACE721684A8901F13000002104F0B2FD43
:1028C00029462068FFF7F6FD2168C86200270EE060
:1028D000012021680871206808F097FD08B10120E7
:1028E00094E72068C06A401C2168C8627F1C206889
:1028F0008078B842ECD82068C06AC01B2168C862E2
:10290000E56029462068FFF7D5FD2061E680216853
:102910004889C11700EBD1614911B6FBF1F201FB07
:1029200012612268303202EB4111616100206DE7D3
:102930002DE9F04704468946042528E021692068EE
:1029400004F07AFD054605B124E0D4F8148098F827
:1029500000600EB904251DE098F80B0000F03F0759
:10296000E52E0DD02E2E0BD00F2F09D027F02000F2
:10297000082801D1012000E00020484500D109E0ED
:1029800000212046FFF737FF054605B102E0206928
:102990000028D3D100BF0DB1002020612846BDE83A
:1029A000F08770B5044601212046FFF7C8FE0546B2
:1029B00095B92169206804F03FFD054665B92022DC
:1029C0000021606904F02EFD0B22D4E9050104F01A
:1029D0001CFD012021680871284670BD70B50446B1
:1029E000E188204600F015F8054685B92169206880
:1029F00004F022FD054655B920220021606904F04B
:102A000011FDE520616908700120216808712846E0
:102A100070BD2DE9F04104460E46E680A568012D03
:102A200003D020684069A84202D80220BDE8F081A6
:102A30002DB920680078032801D12068456A45B97E
:102A400020680089B04201D80220EFE72068476A79
:102A500024E021684889C11700EBD161491122683F
:102A6000927811FB02F812E02946206803F04CF836
:102A70000546681C08B90120D8E7022D03D3206859
:102A80004069A84201D80220D0E7A6EB08064645D7
:102A9000EAD229462068FFF70DFD0746E5600FB929
:102AA0000220C3E721684889C11700EBD1614911B1
:102AB000B6FBF1F13944216121684889C11700EB67
:102AC000D1614911B6FBF1F201FB1261226830328B
:102AD00002EB411161610020A8E710B5012080F3ED
:102AE000108800BF002080F3108800BF40F615401A
:102AF00006F06EF940F6164006F06AF941F204104D
:102B000006F066F940F6194006F062F940F61A4000
:102B100006F05EF940F61B4006F05AF94FF44060AB
:102B200006F056F940F6014006F052F940F6024030
:102B300006F04EF940F6034006F04AF940F606402A
:102B400006F046F940F6074006F042F940F6084024
:102B500006F03EF941F20E1006F03AF941F60F4048
:102B600006F036F941F21C0006F032F941F20B1082
:102B700006F02EF941F20C1006F02AF941F20E008F
:102B800006F026F910BD000038B5054601240020E6
:102B9000009025B1012D47D0022D4DD148E007F01E
:102BA000DDF804461D2C04D1264806F079FE0446C3
:102BB00001E0012038BD1D2C06D12249B1F84C009E
:102BC00007F02CF8044601E00120F3E7684607F01F
:102BD00095F80446009800F0007060B10AE01AA071
:102BE000FEF71CFB4FF080501F490860BFF34F8F6A
:102BF000BFF36F8FF3E71D2C05D14FF4805006F023
:102C000043FD044601E00120D4E71D2C04D101203E
:102C100007F0DAFC044601E00120CBE71D2C01D1CE
:102C20000020C7E70120C5E708F03AF9002405E0D5
:102C300002F086F9002401E0012400BF00BF204615
:102C4000B8E70000E00A0020204552524F523A20D7
:102C50007468652063617264206973206C6F636BB4
:102C6000656421212100000004ED00E02DE9F04120
:102C700007460D4614464FF0040827B1012F27D010
:102C8000022F4ED139E0F5B1012D0CD0022D02D02A
:102C9000032D19D103E04FF40070208014E0244884
:102CA000806C206010E006F06BFD0646204831463F
:102CB000826C20A0FEF7B2FAB0021D49896CB0FB0D
:102CC000F1F0206000E000BF00BF0020BDE8F0810F
:102CD000012D04D0022D06D0032D0BD107E04FF4B7
:102CE0000070206006E04FF48050208002E0012058
:102CF000206000BF00BF0020E8E7012D04D0022DB6
:102D000005D0032D0AD106E08020206006E04FF4B4
:102D10000060208002E00120206000BF00BF002092
:102D2000D4E74FF0040800BF00BF4046CEE70000E4
:102D3000E00A002063617061636974793D5B25641A
:102D40005D73645F63617264696E666F2E63617246
:102D5000645F626C6F636B73697A653D5B25645D6C
:102D60000D0A00002DE9F04107460C4615461E46A7
:102D70004FF01C0814B90420BDE8F0810EB90420FE
:102D8000FAE727B1012F1AD0022F2FD119E0012E17
:102D900006D169027202204606F066F9804607E015
:102DA000690233464FF40072204607F085F88046EA
:102DB000B8F11D0F01D10020DEE70120DCE7002083
:102DC000DAE70B4A02EBC5200AE0002105E010F823
:102DD000012B04F8012B4A1C91B2B1F5006FF6DB10
:102DE0003200A6F10106F0D10020C5E70420C3E7B8
:102DF000000002080146012021B1012904D0022966
:102E000006D103E0002005E0002003E0002001E0FF
:102E1000012000BF00BF70472DE9F04106460F4674
:102E200014461D464FF01C0815B90420BDE8F0817A
:102E300026B1012E1AD0022E1CD119E0012D06D187
:102E400061026A02384606F057FA804607E06102DE
:102E50002B464FF40072384607F0AAF98046B8F1C5
:102E60001D0F01D10020E1E70120DFE70020DDE7B1
:102E70000020DBE70420D9E710B501EB4102D300C5
:102E800000F11002D25822F0010301EB4102D400FC
:102E900000F11002135110BD10B501EB4102D30037
:102EA00000F11002D25842F0010301EB4102D400BC
:102EB00000F11002135110BD30B5134601EB41046F
:102EC000E50000F11004625922F0606242EA4362B8
:102ED00001EB4104E50000F11004625130BD10B572
:102EE00001EB4102D30000F11002D25822F001039D
:102EF00001EB4102D40000F110021351002301EB59
:102F00004102D40000F11002135101EB4102D40040
:102F100000F11402135101EB4102D40000F1180238
:102F2000135101EB4102D40000F11C02135101EBDB
:102F30004102D40000F12002135101EB4102D40000
:102F400000F12402135104290CDA01EB4102530071
:102F5000C1F3400203EB82033D229A4083681A4387
:102F600082600DE00A1FD1B201EB41025300C1F3B0
:102F7000400203EB82033D229A40C3681A43C260B9
:102F800010BD10B504290CDA01EB41035C00C1F35C
:102F9000400304EB830302FA03F384682343836052
:102FA0000DE00B1FD9B201EB41035C00C1F34003FC
:102FB00004EB830302FA03F3C4682343C36010BD28
:102FC00010B5034604290FDA01EB41004400C1F3B8
:102FD000400004EB800402FA04F01C68204008B1B1
:102FE000012010BD0020FCE7081FC1B201EB410029
:102FF0004400C1F3400004EB800402FA04F05C6872
:10300000204008B10120ECE70020EAE730B572B9B2
:1030100001EB4103DC0000F110031B5923F02004F5
:1030200001EB4103DD0000F110035C510DE001EB09
:103030004103DC0000F110031B5943F0200401EBB5
:103040004103DD0000F110035C5130BD70B501EBB0
:103050004104E50000F124046459156A45F00405B3
:103060002C4301EB4105EE0000F12405AC5101EBCE
:103070004104E60000F118041568A55101EB410474
:10308000E60000F11C04D568A55101EB4104E600FF
:1030900000F11404D56AA55101EB4104E50000F1EB
:1030A00010046359414C2340156954682C43156B37
:1030B0002C43956A2C4395692C43D5692C432343B3
:1030C00001EB4104E50000F110046351946874B908
:1030D00001EB4104E50000F11004645944F400756B
:1030E00001EB4104E60000F11004A5511FE09468D3
:1030F000012C0ED101EB4104E50000F110046459EC
:1031000024F4007501EB4104E60000F11004A55120
:103110000DE001EB4104E50000F11004645944F4B2
:10312000004501EB4104E60000F11004A55154698B
:1031300074B901EB4104E50000F11004645944F452
:10314000806501EB4104E60000F11004A5510DE09B
:1031500001EB4104E50000F11004645924F480659A
:1031600001EB4104E60000F11004A551546A74B962
:1031700001EB4104E50000F11004645944F480754A
:1031800001EB4104E60000F11004A5510DE001EB54
:103190004104E50000F11004645924F4807501EB4A
:1031A0004104E60000F11004A55170BD3F871CFEEC
:1031B00030B58DB004460D46012203212748FFF7A4
:1031C000E0FE042203212548FFF7DBFE082203214D
:1031D0002248FFF7D6FE102203212048FFF7D1FE38
:1031E000202203211D48FFF7CCFE03211B48FFF7D7
:1031F00043FE03211948FFF772FE1948009003941B
:1032000000200A900B9001200290002005904FF4BE
:1032100080500190800004904FF440300C904FF4A7
:10322000001007908000069003200890012009906C
:103230006A4603210948FFF709FF012203210748D5
:10324000FFF7E4FE042203210448FFF735FE0321C3
:103250000248FFF721FE0DB030BD000000640240BF
:10326000802C014030B58DB004460D46012203216B
:103270002748FFF786FE042203212548FFF781FE39
:10328000082203212248FFF77CFE10220321204858
:10329000FFF777FE202203211D48FFF772FE03216E
:1032A0001B48FFF7E9FD03211948FFF718FE1948ED
:1032B0000090039440200A9000200B90012002907F
:1032C000002005904FF480500190800004904FF44E
:1032D00040300C904FF400100790800006900120C1
:1032E0000990032008906A4603210948FFF7AEFEC3
:1032F000012203210648FFF789FE04220321044826
:10330000FFF7DAFD03210248FFF7C6FD0DB030BD1F
:1033100000640240802C014070B50546284600F04C
:1033200096FE044634B9284609F0ECF804460CB978
:1033300000202860204670BD2DE9F74F82B08A46F4
:10334000002202A9049801F08FFA01900498046801
:10335000019800286DD1D4E90410801E814203D861
:103360002069CAF8000064E094F800B00026BBF1C0
:10337000010F1CD1022700BF3946204602F0C4FBD2
:10338000804608F1010010B9012001900EE0B8F16B
:10339000010F02D10220019008E0B8F1000F00D126
:1033A000761C781C074661698842E5D33AE0676974
:1033B000206A00904FF00009002500BFB9F1000F0E
:1033C0000ED10098421C01462046009204F034F8C9
:1033D0000190019800B124E004F13005B4F80A909E
:1033E000BBF1020F09D12878697840EA012000B9C1
:1033F000761CAD1CA9F1020910E0E8780006A97856
:1034000040EA0140697840EA01202978084320F029
:10341000704000B9761C2D1DA9F10409781E070023
:10342000CCD100BF2661607940F001006071CAF81C
:103430000060019805B0BDE8F08F2DE9FC47074614
:103440008846914600243E4613E06B46012201A9BE
:10345000484600F014FD0098012800D00DE09DF8CA
:10346000045000BF06F8015B641C0A2D00D104E083
:1034700000BFA8F10100A042E7DC00BF00203070CF
:1034800014B13846BDE8FC870020FBE72DE9F04782
:1034900004460E46204609F035F88246BAF1000F80
:1034A00002D05046BDE8F087E07908B1E079F9E74D
:1034B000E068B04204D2A07900F0020000B9E668EA
:1034C000D4F808904FF00008C4F80880002E71D09E
:1034D000206880782168498900FB01F7B9F1000F65
:1034E00011D0701EB0FBF7F1A9F10100B0FBF7F0AD
:1034F000814208D3A9F10100791E8843A060A06829
:10350000361A656912E025697DB900212068FFF748
:1035100007F80546012D02D10220E071C2E7681CC0
:1035200010B90120E071BDE725616561002D41D032
:1035300023E0A07900F0020038B129462068FEF7A8
:10354000EFFF054635B93E4619E02946206802F0EE
:10355000DBFA0546681C10B90120E071A2E7012DD5
:1035600003D920684069A84202D80220E07199E797
:103570006561A0683844A060F61BBE42D9D800BF80
:10358000A0683044A06020684089B6FBF0F100FBE1
:10359000116078B129462068FEF78CFF8046B8F1AB
:1035A000000F02D10220E0717CE720684089B6FB61
:1035B000F0F0804421684989A068B0FBF1F201FB7A
:1035C000120020B3A069404521D0A07900F040004E
:1035D00078B121684878012304F12401A269FFF73A
:1035E0001BFC10B10120E0715CE7A07920F04000E5
:1035F000A071216848780123424604F12401FFF7B5
:10360000B1FB10B10120E0714CE7C4F81880D4E997
:103610000201884205D9A068E060A07940F020004E
:10362000A07150463EE700002DE9F74F90B091465B
:103630001198012803DD132013B0BDE8F08F10A806
:1036400002F006FB0F900F98002801DA0B20F3E739
:10365000FA490F9851F820500DB90C20ECE70020E2
:1036600028700F98C0B20C9000200B900C98FFF7B8
:103670008BFA0190019800F0010008B10320DBE70C
:10368000019800F0040008B10A20D5E705F10A020C
:1036900002210C98FFF7EAFA38B96889B0F5805F23
:1036A00003DC6889B0F5007F01DA0120C4E700BFC0
:1036B00004AA01210C98FFF7D9FA10B904988028C0
:1036C00001D20120B8E7119808B1002000E03F20A6
:1036D00082460498A0EB0A000490A9F1010000EAD8
:1036E000090008B14FF00009B9F1000F1AD168893B
:1036F000C11700EBD15149124FF4FA6292FBF1F17C
:10370000049AB2FBF1F10A914FF0000B01E00BF1CA
:10371000010BCB4830F81B100A988142F7D8C948F2
:1037200030F81B90B9F5007F02D36889B9FBF0F936
:10373000B9F1000F01D14FF00109B9F1800F01D9A2
:103740004FF080090498B0FBF9F8012640F6F670B6
:10375000804500D302264FF6F670804500D303263D
:10376000032E0CD1082000EB880069890844401E14
:10377000B0FBF1F7202003900020029019E0012E09
:1037800005D108EB4800401C4008C01C02E04FEA8D
:103790004800001D074668893844401E6989B0FB0F
:1037A000F1F70120039068894FF48041B1FBF0F0FC
:1037B0000290039850440790079838440690029965
:1037C00006980844059005984844A0EB0A0004991F
:1037D000884201D90E202FE709AA03210C98FFF790
:1037E00045FA28B9099818B10998B0F5004F01D9E0
:1037F00001200990099905980844401E491E8843F4
:10380000099009990598081A0990032E08D1099979
:10381000039808440390099907980844079001E029
:1038200009980744DDE90301081AC11B0298081A28
:10383000B0FBF9F8022E03D140F6F670804505D3AF
:10384000032E05D14FF6F670804501D20E20F3E627
:10385000032E02D10C200D9010E0012E06D1049809
:10386000B0F5803F02D201200D9007E00498B0F53A
:10387000803F01D2042000E006200D9000BF119887
:1038800010B1F0200E9043E06A89002105F130006C
:1038900003F0C8FD05F5F77401206070A0700020EA
:1038A000E0700D982071FE206071049850443F2113
:1038B000B0FBF1F0FF21B0FBF1F009903F21099836
:1038C00041EA9000A0710998E0713F202072002128
:1038D0006172A172E172049820730498010A617305
:1038E0000498010CA1730498010EE173552185F829
:1038F0002E12AA2185F82F120123002205F1300192
:103900000C98FFF789FA08B1012095E6F8200E908F
:1039100005F130046A890021204603F083FD0B2263
:1039200049A1204603F071FDB5F80AB084F80BB048
:103930004FEA1B21217384F80D900398A07303981C
:10394000010AE17301202074032E01D1002001E05F
:103950004FF40070834684F811B04FEA1B21A17424
:103960000498B0F5803F05D20498E0740498010AE9
:10397000217510E0049884F820000498C0F3072112
:10398000212001550498C0F30741222001550498D5
:10399000010E232001550E9860753F2020760021EE
:1039A0006176FF20A076E17684F81CA04FEA1A2108
:1039B00061774FEA1A41A1774FEA1A61E17702F085
:1039C00043F90990032E4BD1099884F843000998D4
:1039D000C0F30721442001550998C0F30741452051
:1039E00001550998010E4620015584F82470C7F34B
:1039F000072125200155C7F3074126200155390E1F
:103A000027200155022084F82C0000212D2001558B
:103A10002E2001552F200155012084F8300031203F
:103A20000155062084F8320033200155802084F8A7
:103A30004000292084F8420013220BE0842B002050
:103A400004E102081AE10208EBFE904D53444F5383
:103A5000352E30008AA104F1470003F0D6FC1FE0A8
:103A6000099884F827000998C0F3072128200155F8
:103A70000998C0F30741292001550998010E2A2011
:103A80000155A775390AE175802084F824002920A2
:103A900084F8260013227FA104F12B0003F0B5FC6B
:103AA000552084F8FE01AA2140F2FF1001550123A0
:103AB000524621460C98FFF7AFF908B10120BBE54B
:103AC000032E06D101230AF1060221460C98FFF7C6
:103AD000A3F9079808904FF0000B5FE06A89002176
:103AE000204603F09FFC0E980990032E14D0012E5F
:103AF00001D16D4801E06FF0FF000999084309907A
:103B0000099820700998000A60700998000CA0704C
:103B10000998000EE07019E0099860F0FF00099024
:103B2000099820700998000A60700998000CA0702C
:103B30000998000EE070FF202071FF216171A171D2
:103B4000E17120726172A1720F21E1720898411C2B
:103B500002460123089121460C98FFF75DF908B150
:103B6000012069E56A890021204603F05BFC012001
:103B700009900EE00898411C024601230891214655
:103B80000C98FFF749F908B1012055E50998401C48
:103B900009900998B842EDD30BF1010BBBF1000F6E
:103BA0009CD0032E01D1484600E00298834600BF16
:103BB0000898411C02460123089121460C98FFF702
:103BC0002BF908B1012037E5ABF101005FEA000BEA
:103BD000EED1032E49D15220207060706120A07078
:103BE0004120E070722084F8E401722140F2E51077
:103BF00001554121401C01556121401C0155A8F18E
:103C0000010084F8E801C0F3072140F2E9100155F2
:103C1000A8F10100C0F307414FF4F5700155A8F178
:103C20000100010E40F2EB100155022084F8EC0176
:103C3000002140F2ED100155401C0155401C01557A
:103C4000552084F8FE01AA2140F2FF1001550123FE
:103C50000AF1010221460C98FFF7DEF801230AF170
:103C6000070221460C98FFF7D7F8002211460C985E
:103C7000FEF7FCFF08B10120DEE40020DCE40000D8
:103C80004E4F204E414D4520202020464154333296
:103C9000202020004E4F204E414D45202020204620
:103CA000415420202020200000FFFF00F7B582B003
:103CB00016460398019001A801F0CAFF0546002DA1
:103CC00002DA0B2005B0F0BD0E4850F825400CB1CB
:103CD00000202070029810B1002002990870094954
:103CE000029841F82500029808B1012E01D0002069
:103CF000E8E7002203A902A800F0B6FD074638460F
:103D0000E0E70000842B00202DE9F7438AB0054648
:103D100016461DB909200DB0BDE8F08300202860CB
:103D200006F01F0626F001020BA903A800F09CFD77
:103D30000746002F72D1CDF824D003A80B9901F0CB
:103D40003BF90746089C0FB904B9062706F01C008A
:103D500000285CD04FB1042F03D103A8FEF721FE49
:103D6000074646F00806089C09E0E07A00F01100DA
:103D700008B1072703E006F0040000B10827002F70
:103D800055D106F00800002851D001F05DFF8046B3
:103D900084F80E804FEA1821E1734FEA184121742C
:103DA0004FEA1861617484F816804FEA1821E175B2
:103DB0004FEA184121764FEA186161760020E072DF
:103DC000207700216177A177E1772146039803F0FE
:103DD00077FA81460021204607F031FA0120039945
:103DE0000871B9F1000F22D00398D0F82C80494611
:103DF000039805F003F90746CFB9A9F1010003992B
:103E0000C8604146039803F017FB07460FE077B9F7
:103E1000E07A00F0100010B1042708E02DE006F071
:103E2000020020B1E07A00F0010000B1072747B995
:103E300006F0080008B146F020060398C06AE86161
:103E40002C62D7B9AE710020E8712146039803F0C7
:103E500037FA2861E07F0106A07F41EA0041607FD8
:103E600041EA0020217F0843E8600020A860A861A3
:103E7000039828602868C088A88038464BE72DE959
:103E8000FF4F85B0044615469A46DDF818B000206D
:103E9000CAF80000204608F035FB0490049818B1D9
:103EA000049809B0BDE8F08FE07908B1E079F8E74F
:103EB000A07900F0010008B90720F2E7D4E9021068
:103EC000401A02900298854200D9029DBAE021680A
:103ED0004989A068B0FBF1F201FB1200002877D1FC
:103EE00021684989A068B0FBF1F021688978491EF2
:103EF000084000F0FF09B9F1000F17D1A06810B910
:103F00002069039004E06169206801F0FDFD0390E1
:103F10000398022802D20220E071C2E70398401CF5
:103F200010B90120E071BCE7039860616169206805
:103F3000FEF7C0FA064616B90220E071B1E74E441A
:103F400020684089B5FBF0F8B8F1000F2DD009EBDF
:103F5000080021688978884203D920688078A0EB1E
:103F6000090821684878434632465946FEF7FAFE6A
:103F700010B10120E07194E7A07900F0400078B121
:103F8000A069801B40450BD2A169891B23685B890E
:103F900001FB03B021684A8904F1240103F035FADA
:103FA0002068408900FB08F742E0A069B04220D0B9
:103FB000A07900F0400080B121684878012304F125
:103FC0002401A269FEF728FF18B10120E07168E71B
:103FD00010E0A07920F04000A0712168487801230A
:103FE000324604F12401FEF7BDFE10B10120E0715C
:103FF00057E7A66121684989A068B0FBF1F201FB8F
:104000001200216849890F1AAF4200D92F46216852
:104010004989A068B0FBF1F201FB120104F1240010
:1040200008443A4601460190584603F0EEF900BFB5
:10403000BB44A0683844A060DAF800003844CAF8ED
:104040000000ED1B002D7FF442AF002029E72DE991
:10405000F0410446204608F055FA0746002F4CD19F
:10406000A07900F02000002847D0A07900F040009F
:1040700078B121684878012304F12401A269FEF790
:10408000CBFE10B10120BDE8F081A07920F0400006
:10409000A071E169206803F0CFF90746002F2CD109
:1040A000256AE87A40F02000E872207B2877A08912
:1040B000010A6977E068010CA977E068010EE977E9
:1040C0002846216907F0BBF801F0BEFD0646AE7533
:1040D000310AE975310C2976310E69760020A87411
:1040E0000021E974A07920F02000A071012021684E
:1040F0000871206807F025F907463846C3E771B50F
:1041000091B00026012211A90AA800F0ADFB0446D7
:10411000002C44D1CDF840D00AA8119900F04CFFF2
:10412000044600BF002C3AD10F9D0DB9062404E0CF
:10413000E87A00F0010000B10724FCB929460A988A
:1041400003F0BEF80646CEB1E87A00F01000A8B140
:104150001C220AA903A803F058F90596022103A816
:10416000FEF757FC04464CB9002103A8FEF7E0FB1C
:10417000044604B90724042C00D100247CB90AA801
:10418000FEF72CFC04462CB926B131460A9804F0FF
:1041900035FF04461CB90A9807F0D3F804462046B8
:1041A00012B070BD2DE9FF4F83B0044615469B4603
:1041B000049801900020CBF80000204608F0A2F9F6
:1041C0000290029818B1029807B0BDE8F08FE0792C
:1041D00008B1E079F8E7A07900F0020008B90720FB
:1041E000F2E7A0682844A168884200D20025CFE009
:1041F00021684989A068B0FBF1F201FB1200002898
:104200007ED121684989A068B0FBF1F021688978E6
:10421000491E084000F0FF0ABAF1000F1ED1A06845
:1042200038B9276957B900212068FEF779F90746A0
:1042300004E061692068FEF773F9074607B9AAE050
:10424000012F02D10220E071BEE7781C10B90120D5
:10425000E071B9E76761206900B92761A07900F0D2
:10426000400078B121684878012304F12401A26953
:10427000FEF7D2FD10B10120E071A5E7A07920F092
:104280004000A07161692068FEF714F9064616B96E
:104290000220E07198E7564420684089B5FBF0F9A8
:1042A000B9F1000F31D00AEB090021688978884202
:1042B00003D920688078A0EB0A09216848784B462A
:1042C00032460199FEF7A8FD10B10120E0717BE7AD
:1042D000A069801B484511D2A069831B2068B0F8F3
:1042E0000AC0019803FB0C012068428904F12400F4
:1042F00003F08BF8A07920F04000A071206800E066
:1043000017E0408900FB09F835E0A069B0420FD002
:10431000D4E9020188420BD2216848780123324651
:1043200004F12401FEF71EFD10B10120E0714BE7FE
:10433000A66121684989A068B0FBF1F201FB120077
:1043400021684989A1EB0008A84500D9A846216841
:104350004989A068B0FBF1F201FB120104F12400CD
:10436000084442460090019903F04FF8A07940F0CC
:104370004000A07100BF019840440190A0684044F3
:10438000A060DBF800004044CBF80000A5EB080576
:10439000002D7FF42DAF00BFD4E90201884201D97E
:1043A000A068E060A07940F02000A07100200BE739
:1043B0007CB500240020019000900025002601AA71
:1043C000694628480068FEF7B7FF0446002C39D13B
:1043D00001984069801E0199897800FB01F60198D7
:1043E0008078009900FB01F501994889C11700EB1D
:1043F000D15149124E4301994889C11700EBD1515F
:1044000049124D4370081849086068081749086048
:1044100000BF17480068032800DA12E015A0FCF777
:10442000FDFE4422164917A0FCF7F8FE0F4802686B
:104430000D48016817A0FCF7F1FE20A0FCF7EEFE86
:1044400000BF00BF0D2C0AD10022114605480068AC
:10445000FFF7EAF80446214619A0FCF7DFFE00202A
:104460007CBD0000980100209C010020A0010020DC
:1044700074050020205B494E464F5D3A2000000045
:10448000C2E002085B25735D2D3E5B25645D3A202A
:1044900000000000454D4D4320546F74616C53691A
:1044A0007A653A2564204B623B6672656553697A8A
:1044B000653A202564204B62000000000D0A0000D0
:1044C0000D0A665F6D6B6673202D3E2073746174F8
:1044D0003D5B307825785D0D0A00000070B5002442
:1044E000052500BF0020FEF74FFB04461CB1681EE7
:1044F00080B20500F6D101220E4801680E48FFF790
:10450000D5FB0446A4B121460CA0FCF787FE0D2C78
:104510000CD14FF48052002106480068FFF784F860
:1045200004461CB121460CA0FCF778FE002070BDAB
:104530000020FCE798010020300B00200D0A665F88
:104540006D6F756E74204661696C6564203D3E2018
:104550005B25645D0D0A00000D0A665F6D6B667376
:10456000204661696C6564203D3E205B25645D0DDD
:104570000A0000002DE9F043ADF5037D07460E4625
:104580004FF00A094FF4017101A8FBF7C3FE0122A5
:1045900039464248FFF7B8FB0546BDB100BF404869
:1045A0000068012800DA0FE03EA0FCF737FE4FF468
:1045B00098723F493FA0FCF731FE42A0FCF72EFE67
:1045C00045A0FCF72BFE00BF00BF64E0002454E0D0
:1045D00002254FF00A092AE0A9F1010921462F48D6
:1045E000FEF754FF054605B121E004F50070B04226
:1045F00002D9A6EB040801E04FF40078B8F5007F7B
:1046000001DD4FF400784FF4007101A8FBF782FE42
:104610004AF6AA203149086082AB424601A91F48E8
:10462000FFF72DFC054600208DF8040200BF15B1F0
:10463000B9F1010FD0DC25B901A929A0FCF7EEFDE5
:1046400019E000BF16480068012800DA11E015A043
:10465000FCF7E4FD40F25112154916A0FCF7DEFD0F
:10466000224629461FA0FCF7D9FD1BA0FCF7D6FD6A
:1046700000BF00BF03E004F50074B442A8D300BF3C
:104680000648FFF7E4FC0548FEF746FE00200DF55E
:10469000037DBDE8F0830220F9E70000601B0020E5
:1046A00074050020205B4552525D3A200000000056
:1046B000F3E002085B25735D2D3E5B25645D3A20C7
:1046C000000000006F70656E2066696C6520666191
:1046D000696C2E2E2E0000000D0A000000300040F4
:1046E0002573000066617466735F726561645F6460
:1046F00061746120726573756C743A2025642D2D88
:104700003E256420620000002DE9F84305460E4670
:1047100017469846DDF82090122229463748FFF7C1
:10472000F3FA0446C4B100BF35480068012800DA36
:104730000EE034A0FCF772FDE222354935A0FCF70B
:104740006DFD38A0FCF76AFD3AA0FCF767FD00BFDD
:1047500000BF2046BDE8F8832EB92848C168FEF79F
:1047600095FE044604E039462448FEF78FFE0446D1
:10477000D4B12248FEF7D0FD00BF214800680128CF
:1047800000DA0EE01FA0FCF749FDEE22204921A02F
:10479000FCF744FD28A0FCF741FD26A0FCF73EFDF8
:1047A00000BF00BF2046D5E76B464A464146134846
:1047B000FFF7F8FC0446C4B100BF114800680128A7
:1047C00000DA0FE00FA0FCF729FD4FF481721049C9
:1047D00010A0FCF723FD1EA0FCF720FD15A0FCF7A0
:1047E0001DFD00BF00BF2046B4E70448FFF72FFCC3
:1047F0000248FEF791FD2046ACE70000601B002058
:1048000074050020205B4552525D3A2000000000F4
:10481000E2E002085B25735D2D3E5B25645D3A2076
:10482000000000006F70656E206661696C212121B7
:10483000000000000D0A00007365656B207379733A
:10484000206461746120206661696C21212100006F
:1048500077726974652073797320646174612020B4
:104860006661696C212121002DE9F74F8AB0002192
:104870000A9801600B9801F0EBF90990099800285B
:1048800003DA0B200DB0BDE8F08FE949099851F823
:1048900020400CB90C20F5E70A980460207878B124
:1048A0006078FEF7A7FA814609F0010040B90C983C
:1048B00020B109F0040008B10A20E3E70020E1E795
:1048C00000202070099860706078FEF75DF98146DD
:1048D00009F0010008B10320D4E70C9820B109F0D9
:1048E000040008B10A20CDE7607804F10A02022131
:1048F000FEF7BCF938B96089B0F5007F03DB608949
:10490000B0F5805F01DD0120BCE700273946204675
:10491000FDF77EFD0546012D01D09DBB32E000264E
:104920001AE004F5F77000EB061898F8040070B16F
:1049300098F80B00010698F80A0041EA004198F83F
:10494000090041EA002098F80810084300E0002020
:1049500002A941F82600761C042EE2D3002606B1F7
:10496000761E00BF02A850F8267027B139462046AF
:10497000FDF74EFD00E0022005461DB1701C064605
:104980000428EFD3032D01D101207BE70DB10D20C9
:1049900078E73B20015D94F83C0041EA0020618902
:1049A000884201D00D206DE74620015D94F8470054
:1049B00041EA002ABAF1000F0ED194F8570001061F
:1049C00094F8560041EA004194F8550041EA00206D
:1049D00094F8541040EA010AC4F818A04020005D81
:1049E000E070E078012804D0E078022801D00D20A2
:1049F00048E7E0780AFB00FA3D20005DA070A0784F
:104A000018B1A078411E084008B10D203AE74120B6
:104A1000015D94F8420041EA002020816089C117BD
:104A200000EBD1614911228992FBF1F301FB1321C3
:104A300009B10D2026E74320015D94F8440041EAC6
:104A400000200890089870B994F85300010694F873
:104A5000520041EA004194F8510041EA002094F8E4
:104A60005010084308903E20015D94F83F0041EA51
:104A700000200190019808B90D2003E76089C11753
:104A800000EBD1614911228992FBF1F20199514465
:104A900011440791DDE90710884201D20D20F1E6AB
:104AA000DDE90710401AA178B0FBF1FBBBF1000F64
:104AB00001D10D20E6E6012540F6F670834500D3CE
:104AC00002254FF6F670834500D303250BF1020053
:104AD0006061E76101983844206207983844A06219
:104AE000032D16D1208908B10D20CBE694F85F0084
:104AF000010694F85E0041EA004194F85D0041EA45
:104B0000002094F85C1008436062606980000690A1
:104B100014E0208908B90D20B4E6206A5044606290
:104B2000022D02D16069400007E0207D00F0010005
:104B3000616901EB410100EB510006906089401E64
:104B4000069908446189B0FBF1F0A169884201D956
:104B50000D2097E64FF0FF302061E060802060710B
:104B6000032D5AD194F8601094F8610041EA0020B6
:104B7000012852D1791C204602F05EFCE8BB0020DF
:104B8000607194F82E1294F82F0241EA00204AF640
:104B90005521884241D13320005D01063220005D5D
:104BA00041EA00413120005D41EA002094F83010D4
:104BB00008432049884230D194F81702010694F83E
:104BC000160241EA004194F8150241EA002094F8E7
:104BD00014120843184988421FD194F81B02010699
:104BE00094F81A0241EA004194F8190241EA0020BF
:104BF00094F818120843206100E00EE094F81F02B8
:104C0000010694F81E0241EA004194F81D0241EAAF
:104C1000002094F81C120843E060257007480088C3
:104C2000401C80B205490880E08000202AE6000090
:104C3000842B00205252614172724161A401002014
:104C40002DE9F04107460D460024384600F08CFE61
:104C50000646284600F088FE80461B2E02D9052015
:104C6000BDE8F08100F06CF9344620E00C2C09D34B
:104C7000172C07D8211DF82202EAC10000F00AF91A
:104C8000A0B11AE0182C0AD31B2C08D8A4F10C01EF
:104C9000F82202EAC10000F0FDF838B10DE0F82179
:104CA00001EAC40000F0F6F800B106E0641C4445D7
:104CB000DCD900F0D5F80020D2E700F0D1F80520CB
:104CC000CEE710B503460C46002104E01878505496
:104CD0005B1C481CC1B2A142F8D3002010BD2DE9D5
:104CE000F04107460C46154604F0030018B10120B8
:104CF00000EB9400840004F0030010B10620BDE82E
:104D0000F08100F01DF90FE0D32000F0A3F8384641
:104D1000296800F027F906461EB100F0A1F83046D8
:104D2000EDE73F1D2D1D241F002CEDD100F098F85C
:104D30003046E4E72DE9F047804689461546464669
:104D400000F0FEF8D32000F085F8002420E0295D73
:104D5000304600F057F807463078295D88420AD07F
:104D60002B5D327831460DA0FCF758FA00F078F848
:104D70000620BDE8F08747B12A5D314614A0FCF754
:104D80004DFA00F06DF83846F3E7761C601C84B2EB
:104D90004C45DCDB00F064F80020EAE73D3D3D4592
:104DA00052524F523D3D3D20616464723D5B30780C
:104DB00025585D2076616C75653D5B307825585DC2
:104DC00020213D205B307825585D0D0A0000000051
:104DD0003D3D3D4552524F523D3D3D206164647220
:104DE0003D5B307825585D2076616C75653D5B30A4
:104DF0007825585D207772697465206572726F72CC
:104E0000210D0A0070B504460D4600266FF03040B3
:104E100000F030F80646CEB90D48006820F4407026
:104E20000B4908600846006808600846006840F0C2
:104E30000100086025706FF0304000F01BF8064656
:104E40000348006820F0010001490860304670BD49
:104E5000103C024001490860704700000C3C0240D1
:104E60000348006840F000400149086070470000B6
:104E7000103C024010B50346012400BF00F03AF890
:104E800004465B1E012C01D1002BF7D103B9072486
:104E9000204610BD30B5044600256FF03040FFF7C6
:104EA000E9FF05460DBB1248006820F0F8001049E4
:104EB00008600846006844F0020108430C49086095
:104EC0000846006840F4803008606FF03040FFF71B
:104ED000D1FF05460648006820F00200044908603A
:104EE0000846006820F0F8000860284630BD000041
:104EF000103C02400020114A116801F480320AB1CE
:104F0000012019E001F480720AB1022014E001F0DE
:104F100080020AB103200FE001F040020AB1042030
:104F20000AE001F010020AB1052005E001F00202DA
:104F30000AB1062000E00020704700000C3C02404F
:104F40000548006800F0004028B1044802490C39C7
:104F50000860034808607047103C02402301674521
:104F6000AB89EFCD70B504460D4600266FF030409A
:104F7000FFF780FF0646DEB90E48006820F4407057
:104F80000C4908600846006840F400700860084654
:104F9000006840F00100086025606FF03040FFF7C6
:104FA00069FF06460348006820F0010001490860D7
:104FB000304670BD103C02402DE9F3410446019893
:104FC00000782F2803D0019800785C2802D101983E
:104FD000401C01900020A06001980078202807D292
:104FE00000212046FDF715FD05460020606128E000
:104FF00000BF01A92046FDF7FFFA054605B11FE0F5
:105000002046FDF7CAFB0546A069C67A3DB1042DCE
:1050100004D100BF06F0040000B9052510E006F039
:10502000040000B10CE06769F87A00F0100008B9DC
:10503000052505E03946206802F042F9A060D8E76E
:1050400000BF2846BDE8FC8170B504460D46E1B2BC
:10505000054806F0FAFD00BF0721034806F06DFE83
:105060000028F9D0204670BD0050004010B500283F
:1050700021D0114B0022001F196803E0814203D8A0
:105080000A4649680029F9D152B11368841A9C4232
:1050900004D1006818441060104602E0506000E03F
:1050A000186039B102680B1A934203D10B681A4495
:1050B00002604968416010BD5407002070B54F4937
:1050C00091ED1F0ABCEEC00A10EE101A88B200F073
:1050D000BDF84B4908704B480088032190FBF1F262
:1050E00001FB120047490880454800784449497847
:1050F000884204D043480088401C42490880404808
:1051000000783F494978884275D03E480088002899
:1051100071DD0025EF2002F02FF904461CB93AA0FA
:10512000FCF77CF870BDEF212046FBF7F3F842480E
:105130000078401C40490870404840794049086068
:10514000084600782070102060703E480078E070BB
:105150003948007820710220607104222846691CB9
:10516000CDB2A11D0A54F0222846691CCDB2A11D62
:105170000A5400222846691CCDB2A11D0A546F2290
:105180002846691CCDB2A11D0A541D480278284644
:10519000691CCDB2A11D0A54194842782846691CE1
:1051A000CDB2A11D0A5400222846691CCDB2A11D12
:1051B0000A54E81D84F8EE00204601F0F4FE214672
:1051C000214802F065F81D4880791D4908600846AD
:1051D00000782070204601F0E6FE21461A4802F0D1
:1051E00057F814B12046FFF741FF164801681648EA
:1051F00001F0D2FD00BF00BF94E7000034020020A0
:105200008C0100208A0100203D3D3D3D3D4552522C
:105210004F523A20667275206576656E743A206D3D
:10522000616C6C6F63206661696C65643D3D3D3DFA
:105230003D3D0D0A00000000940100200C010020FB
:105240000401002000010020005400400146022912
:1052500001DD042070470120FCE70000F8B5064698
:10526000304602F017F9044600250020009004B9EA
:10527000F8BD6A4604210E48FFF723FD1C2060702C
:1052800000222846691CCDB2A11D0A5401222846DD
:10529000691CCDB2A11D0A549DF800202846691C46
:1052A000CDB2A11D0A54E81D84F8EE002046DFE7C8
:1052B00000002D0870B50646304602F0EBF80446B3
:1052C00000250CB9002070BD1C206070002228460B
:1052D000691CCDB2A11D0A54FF222846691CCDB21B
:1052E000A11D0A5481222846691CCDB2A11D0A5471
:1052F00091222846691CCDB2A11D0A5401222846DC
:10530000691CCDB2A11D0A5451222846691CCDB298
:10531000A11D0A5423222846691CCDB2A11D0A549E
:1053200001222846691CCDB2A11D0A54002228463C
:10533000691CCDB2A11D0A542846691CCDB2A11D1D
:105340000A5410222846691CCDB2A11D0A5400221D
:105350002846691CCDB2A11D0A54E81D84F8EE0050
:105360002046B0E72DE9F0410746384602F092F8B2
:1053700004460025397A787A01EB002086B214B908
:105380000020BDE8F0811420607000222846691CCE
:10539000CDB2A11D0A54092E0EDA387A401CC2B2D1
:1053A0002846691CCDB2A11D0A547A7A2846691C88
:1053B000CDB2A11D0A540AE0FF222846691CCDB2D5
:1053C000A11D0A542846691CCDB2A11D0A543A7A7F
:1053D0002846691CCDB2A11D0A547A7A2846691C58
:1053E000CDB2A11D0A5451222846691CCDB2A11D7F
:1053F0000A5401222846691CCDB2A11D0A542B2251
:105400002846691CCDB2A11D0A54E07842102846F6
:10541000691CCDB2A11D0A5400222846691CCDB2D8
:10542000A11D0A542846691CCDB2A11D0E540A22A2
:105430002846691CCDB2A11D0A5460222846691C69
:10544000CDB2A11D0A547F222846691CCDB2A11DF0
:105450000A5468222846691CCDB2A11D0A5406EBE5
:10546000860000EBC600FC4901EB8000027C284668
:10547000691CCDB2A11D0A5400222846691CCDB278
:10548000A11D0A5480222846691CCDB2A11D0A54D0
:105490000A222846691CCDB2A11D0A548022284642
:1054A000691CCDB2A11D0A547A222846691CCDB2CE
:1054B000A11D0A5438222846691CCDB2A11D0A54E8
:1054C0002846691CCDB2A11D0A5400222846691C39
:1054D000CDB2A11D0A5406EB860000EBC600DE49E2
:1054E00001EB8000027C2846691CCDB2A11D0A5444
:1054F00000222846691CCDB2A11D0A542846691C09
:10550000CDB2A11D0A5406EB860000EBC600D249BD
:1055100001EB8000007C012824D10F222846691C61
:10552000CDB2A11D0A5400222846691CCDB2A11D8E
:105530000A54E0222846691CCDB2A11D0A54FF225C
:105540002846691CCDB2A11D0A5400222846691CB8
:10555000CDB2A11D0A54F1222846691CCDB2A11D6D
:105560000A5423E019222846691CCDB2A11D0A5411
:1055700000222846691CCDB2A11D0A54802228466B
:10558000691CCDB2A11D0A54FF222846691CCDB268
:10559000A11D0A5400222846691CCDB2A11D0A543F
:1055A000E1222846691CCDB2A11D0A5400222846DA
:1055B000691CCDB2A11D0A5499222846691CCDB29E
:1055C000A11D0A54BC222846691CCDB2A11D0A5453
:1055D00058222846691CCDB2A11D0A54FF22284634
:1055E000691CCDB2A11D0A5400222846691CCDB207
:1055F000A11D0A5406EB860000EBC600964901EB9C
:105600008000007C01286BD106EB860000EBC60011
:1056100001EB8000D0ED060AB0EE600A01F0D6FC86
:1056200029466A1CD5B2A21D505406EB860000EB39
:10563000C600894901EB8000D0ED070AB0EE600A90
:1056400001F0C4FC29466A1CD5B2A21D505406EBD9
:10565000860000EBC600804901EB8000D0ED080A0F
:10566000B0EE600A01F0B2FC29466A1CD5B2A21D58
:10567000505406EB860000EBC600774901EB800032
:10568000D0ED090AB0EE600A01F0A0FC29466A1CC0
:10569000D5B2A21D505406EB860000EBC6006E4941
:1056A00001EB8000D0ED0A0AB0EE600A01F08EFC3A
:1056B00029466A1CD5B2A21D505406EB860000EBA9
:1056C000C600654901EB8000D0ED0B0AB0EE600A20
:1056D00001F07CFC29466A1CD5B2A21D50546BE037
:1056E00006EB860000EBC6005B4901EB8000D0EDC5
:1056F000060AB0EE600A01F073FC29466A1CD5B2B6
:10570000A21D505406EB860000EBC600524901EB87
:105710008000D0ED070AB0EE600A01F061FC294676
:105720006A1CD5B2A21D505406EB860000EBC600E1
:10573000494901EB8000D0ED080AB0EE600A01F0A3
:105740004FFC29466A1CD5B2A21D505406EB8600B8
:1057500000EBC600404901EB8000D0ED090AB0EE35
:10576000600A01F03DFC29466A1CD5B2A21D5054C6
:1057700006EB860000EBC600374901EB8000D0ED58
:105780000A0AB0EE600A01F02BFC29466A1CD5B269
:10579000A21D505406EB860000EBC6002E4901EB1B
:1057A0008000D0ED0B0AB0EE600A01F019FC29462A
:1057B0006A1CD5B2A21D505405222846691CCDB2E0
:1057C000A11D0A542846691CCDB2A11D0A5400220D
:1057D0002846691CCDB2A11D0A542846691CCDB2C9
:1057E000A11D0A542846691CCDB2A11D0A5406EB1E
:1057F000860101EBC601184A02EB8100FAF7BFFDF2
:10580000C2B22846691CCDB2A11D0A544FF000084F
:1058100011E006EB860000EBC6000F4901EB8000AB
:1058200010F808202846691CCDB2A11D0A5408F1C1
:10583000010000F0FF0806EB860101EBC601064AF5
:1058400002EB8100FAF79BFD4045E2D8E81D84F8A1
:10585000EE00204695E500003402002001460020BD
:10586000034A108003480078024A507000207047B5
:105870008A0100208C01002010B500244FF4007133
:105880002E4800F09FFC012801D144F001044FF4A0
:1058900080612A4800F096FC012801D144F00204FE
:1058A0004FF40061254800F08DFC012801D144F03F
:1058B00004044FF48051214800F084FC012801D1F8
:1058C00044F008044FF400511C4800F07BFC012810
:1058D00001D144F010044FF48041184800F072FCEC
:1058E000012801D144F02004162C11D01A2C07D025
:1058F000372C09D03B2C0FD10420114908700FE040
:1059000005200F4908700BE008200D49087007E0DA
:1059100009200B49087003E000200949087000BF06
:1059200000BF084806490978425C214606A0FBF7FB
:1059300075FC044802490978405C10BD0010024023
:1059400008010020F40000200D0A4741503D5B3063
:105950007825585D2069706D625F616464723D5B9B
:10596000307825585D0D0A0010B5024600204FF032
:10597000006143F6FF740B192FE08A4202D39A426A
:1059800000D22CE0441CE0B2591C042802DA43F691
:10599000FF740B19042802D14FF6FF740B19052868
:1059A00003DB0B2801DC0F4C0B190C2804DB0F2840
:1059B00002DC43F6FF740B19102802D14FF6FF7476
:1059C0000B19112803DB172801DC064C0B191828CA
:1059D00003DB1B2801DC044C0B191B28CDDD00BFA9
:1059E00010BD0000FFFF0100FFFF03002DE9F041A3
:1059F0002DED028B8046404601F04CFD044600260A
:105A00009FED3F0AB0EE408A98F80650002724B96F
:105A10000020BDEC028BBDE8F08105EB850000EBBA
:105A2000C500384901EB8000007C01281BD105EB43
:105A3000850000EBC50001EB800090ED050AB8EE93
:105A4000C08AE8B205EB850101EBC5012D4A02EBE6
:105A50008101D1ED050AF8EEE00AB0EE600A06F029
:105A60006BFD074617E005EB850000EBC5002549F7
:105A700001EB800090ED058AE8B205EB850101EBB2
:105A8000C501204A02EB8101D1ED050AB0EE600AA2
:105A900006F052FD07461420607000223046711C4B
:105AA000CEB2A11D0A5405EB850000EBC5001549D7
:105AB00001EB8000007C012809D1B0EE480A01F01A
:105AC00085FA3146721CD6B2A21D505408E0B0EEE1
:105AD000480A01F085FA3146721CD6B2A21D505414
