:020000040800F2
:10000000800500205D020008F3070008EB070008E8
:10001000EF070008E5070008550900080000000088
:100020000000000000000000000000009D0100082A
:10003000E907000800000000F9010008FD070008BA
:1000400077020008770200087702000877020008AC
:10005000770200087702000877020008770200089C
:10006000770200087702000877020008770200088C
:10007000770200087702000877020008770200087C
:10008000770200087702000877020008770200086C
:10009000770200087702000877020008770200085C
:1000A000770200087702000877020008770200084C
:1000B000770200087702000877020008770200083C
:1000C000770200087702000877020008770200082C
:1000D000770200087702000877020008770200081C
:1000E000770200087702000877020008770200080C
:1000F00077020008770200087702000877020008FC
:1001000077020008F5070008770200087702000868
:1001100077020008F9080008770200087702000853
:1001200077020008770200087702000877020008CB
:1001300077020008770200087702000877020008BB
:1001400077020008770200087702000877020008AB
:10015000770200087702000877020008770200089B
:10016000770200087702000877020008770200088B
:1001700077020008770200087702000800000000FC
:100180007702000877020008DFF80CD000F018FBB7
:1001900000480047C3140008800500202C4B196854
:1001A0000868B0E8F04F80F30988BFF36F8F4FF015
:1001B000000080F3118870470000000008480068C4
:1001C000006880F308884FF0000080F3148862B65E
:1001D00061B6BFF34F8FBFF36F8F00DF00BF00BF6B
:1001E00008ED00E0DFF80C00016841F470010160E7
:1001F000704700BF88ED00E0EFF30980BFF36F8F19
:10020000134B1A681EF0100F08BF20ED108A20E96A
:10021000F04F106009B44FF0200080F31188BFF355
:100220004F8FBFF36F8F01F02BFD4FF0000080F375
:10023000118809BC19680868B0E8F04F1EF0100F6B
:1002400008BFB0EC108A80F30988BFF36F8F704746
:100250002C000020EFF3058070470000064880471F
:1002600006480047FEE7FEE7FEE7FEE7FEE7FEE79B
:10027000FEE7FEE7FEE7FEE7310800088901000817
:100280002DE9F05F0546002092469B4688460646CB
:10029000814640241BE0284641464746224600F05E
:1002A000DFF953465A46C01A914110D311461846F9
:1002B000224600F0C6F92D1A67EB01084F46224688
:1002C0000120002100F0BDF917EB00094E41201E6E
:1002D000A4F10104DFDC484631462A464346BDE826
:1002E000F09F40EA01039B0703D009E008C9121FF1
:1002F00008C0042AFAD203E011F8013B00F8013BE0
:10030000521EF9D270472DE9FE4F804681EA030064
:10031000C00F0C46009021F0004123F00045B8EBDF
:100320000200A94105D24046214690461C460B4694
:10033000024623F00040104347D0270DC7F30A00C0
:10034000C3F30A510290401A019040286BDAC3F3BC
:10035000130040F4801B0098924620B10023D2EB9A
:10036000030A63EB0B0B01985946C0F1400250465B
:1003700000F067F906460D4650465946019A00F0CE
:100380007FF910EB08006141002487EA115284EAEA
:10039000E7731A4340D0009A62B3019A012A4FEAE8
:1003A000075215DC001B61EB02014FF0004202EA2C
:1003B0000752CDE90042001C41F5801132462B4620
:1003C00000F07FF903B0BDE8F08F40462146F9E721
:1003D000001B61EB0201001C41F5801300185B411A
:1003E0002018A2F5001747EB030140EAD570B619B3
:1003F0006D4111E06D084FEA360645EAC0754FEAD7
:100400000752001B61EB0201001C41F580114908F5
:100410004FEA30000019514132462B4603B0BDE887
:10042000F04F00F03FB90098012240000023D0EBCC
:10043000020263EBE073009821464FEAE074B8EBE8
:10044000000061EB0401E9E783F000435BE781F022
:10045000004158E72DE9FE4F81EA030404F000440F
:1004600021F0004100944FF0000B23F0004350EACC
:1004700001045ED052EA03045BD0C3F30A54C1F313
:100480000A552C44A4F2F3340194A0FB0254C1F3A6
:10049000130141F48011C3F3130343F4801301FBF0
:1004A000024400FB034E840A970A44EA815447EA57
:1004B0008357A4FB076802958D0A05FB07854FEA61
:1004C000932C04FB0C542705029D4FEA065847EA7B
:1004D0001637B5EB08056EEB070C870E920E47EA50
:1004E000811742EA8312A7FB0201B6EB0B0164EB12
:1004F00000042B0D43EA0C335E1844EB1C50DA4623
:100500005146E7FB0201C5F313044FEA0B3343EAFC
:1005100014534FEA0432019C43EA0603A4F10C048D
:100520000294009CCDE900B400F0CBF803B0BDE824
:10053000F08F00200146F9E72DE9F04D81EA030430
:1005400004F0004B21F0004514464FF0000A23F060
:10055000004150EA050220D054EA01021DD0C5F343
:100560000A570246C5F31303C1F31300C1F30A5639
:1005700040F4801543F48013A7EB0608101BD64601
:1005800008F2FD3873EB050002D308F1010801E021
:1005900092185B41B8F1000F03DA00200146BDE874
:1005A000F08D00204FF48011064684460EE0171BA4
:1005B00073EB050705D3121B63EB050306434CEAF7
:1005C000010C49084FEA300092185B4150EA0107DC
:1005D000EDD152EA030012D082EA040083EA050159
:1005E000084305D0101BAB4106D20122002306E0D0
:1005F00000224FF0004302E06FF0010253101AEBAB
:1006000006004CEB085110EB0A0041EB0B01BDE872
:10061000F04D00F047B830B50B46014600202022CF
:10062000012409E021FA02F59D4205D303FA02F5FF
:10063000491B04FA02F52844151EA2F10102F1DC5F
:1006400030BD202A04DB203A00FA02F10020704776
:100650009140C2F1200320FA03F319439040704700
:10066000202A04DB203A21FA02F00021704721FA07
:1006700002F3D040C2F1200291400843194670476E
:10068000202A06DBCB17203A41FA02F043EAE07356
:1006900006E041FA02F3D040C2F120029140084343
:1006A0001946704710B5141E73F1000408DA401C97
:1006B00041F1000192185B411A4301D120F0010081
:1006C00010BD2DE9F04D92469B4611B1B1FA81F271
:1006D00002E0B0FA80F220329046FFF7B2FF044603
:1006E0000F4640EA0A0041EA0B0153465A460843C6
:1006F00013D0114653EA010019D0C8F14002504608
:10070000FFF7AEFF05460E46504659464246FFF7F4
:1007100098FF084305D0012004E020463946BDE893
:10072000F08D0020054346EAE0762C4337430A98D3
:100730006305E40AA0EB08000022FD0A44EA4754DE
:100740000A3002D500200146E9E701051019694188
:10075000DDE9084500196941BDE8F04DA2E7C1F3A4
:100760000A52C1F3130140F2FF3341F480119A425F
:1007700002DA00200146704740F233439A42A2F267
:10078000334202DC5242FFF76BBFFFF75ABF000053
:1007900030B5041E71F1000404DB4FF00044404208
:1007A00064EB0101141E73F1000405DB1C464FF0DD
:1007B0000043524263EB0403994208BF904230BDAC
:1007C000064C074D06E0E06840F0010394E807009E
:1007D00098471034AC42F6D3FFF7DAFCAC2000089F
:1007E000CC20000800BFFEE7704700BFFEE700BF57
:1007F000FEE7704710B500F089FF10BD10B500BFCF
:10080000202080F31188BFF34F8FBFF36F8F00BF9D
:1008100001F0F8FA18B14FF080500449086000BFA9
:10082000002080F3118800BF10BD000004ED00E03F
:1008300008B52D48006840F470002B4908602B482B
:10084000006840F001002949086028480830006825
:1008500040F080002549083108600020009002E047
:100860000098401C00904CF2503100988842F7D319
:100870001E480830006840F090001C4908310860AC
:100880000020009002E00098401C00904CF2503193
:1008900000988842F7D315480830006820F003001C
:1008A00012490831086011480068114908400F4991
:1008B00008600846006820F48020086000200B498A
:1008C0000831086000BF094808300068002000288F
:1008D000F9D108480549091D0860002003490C3179
:1008E000086001F033F808BD88ED00E000380240F0
:1008F000FFFFF6FE103000241CB500200190009090
:100900000F49104801F033F9C8B10E4801F096F8CC
:10091000C0B200900C490B4801F01CF9002301AA59
:1009200069460A48006801F0F1F9019838B14FF0C2
:10093000805007490860BFF34F8FBFF36F8F1CBD16
:1009400004030400005000400503050000000020DF
:1009500004ED00E000BFFEE70FB4054B10B503A99E
:10096000044A029800F03EF910BC5DF814FB000048
:10097000B11300087400002002E008C8121F08C16B
:10098000002AFAD170477047002001E001C1121F10
:10099000002AFBD1704700000848006808498842D7
:1009A00001D101207047054800680549C9438842C4
:1009B00001D10220F6E70020F4E700000040000823
:1009C000A55A5AA510B540F6024000F069FE40F65F
:1009D000034000F065FE41F2140000F061FE4FF4A8
:1009E000805208211A4800F0F5FC04220821194819
:1009F00000F0F0FC4FF4805301220221144800F073
:100A000018FD4FF4805302220021114800F038FDF8
:100A10000423012202210F4800F00BFD04230222CF
:100A200000210C4800F02CFD0B4801F011F84FF4A8
:100A30006121094800F08EFF0421074801F0B3F856
:100A40000821054801F0B7F8034801F06FF810BD20
:100A500000080240000C02400050004070B50446FF
:100A6000206806490840B0F1005F06D16668354647
:100A7000206880F3088800BFA84770BD0000FC2FE5
:100A80002DE9FF5FDDE90220010DDDF838B00243FA
:100A900018D044F61050A1F2FF3141430D140F98C5
:100AA000012820D0A5EB0B00401C5FEA000A4FF0A4
:100AB0000004474EDFF81C91A046504616D5CAF1F7
:100AC000000728E00F98012443A2012808D0002144
:100AD00000980F9BC0E90021C0E90243BDE8FF9FD9
:100AE0006FEA0B01F4E7CBF10000DEE7074612E006
:100AF000F80707D02246334640464946FFF7AAFC8E
:100B0000804689462246334610461946FFF7A2FC26
:100B100004460E467F10002FEAD1DDE90201BAF14A
:100B2000000F42464B4602DAFFF794FC01E0FFF764
:100B300003FD04460E460022284BFFF729FE03D88A
:100B40004FF0FF30014607E00022254B204631469A
:100B5000FFF7D9FBFFF703FE102409E0002C0ADBA6
:100B60000A220023FFF78CFB019B30321A55641ECA
:100B700050EA0102F2D1641C019AC4F11103144439
:100B80000F9A012A03D0012208430DD10AE008433D
:100B900004D000204FF0110B0F9080E7A3EB0B0562
:100BA0006D1E0DE05B4504DD4FF0000205F101050F
:100BB00004E003DA4FF00002A5F10105002AECD0B1
:100BC00000980F99C0E90231C0E9004586E70000AE
:100BD000000024400000F03F300000000000F0431F
:100BE0000000E03F2DE9FF4F95B09B468946064641
:100BF00000250FE2252877D100242746F84A012155
:100C0000059400E0044316F8013F203B01FA03F08D
:100C10001042F7D130782A2811D06FF02F033078A6
:100C2000A0F13002092A16D8059A44F0020402EB1A
:100C3000820203EB42021044761C0590EFE759F85C
:100C4000042B0592002A03DA504244F40054059024
:100C500044F00204761C30782E2816D116F8010FC5
:100C600044F004042A280DD06FF02F023078A0F150
:100C70003003092B09D807EB870302EB4303C7189E
:100C8000761CF3E759F8047B761C30786C280FD07B
:100C900006DC4C2817D068280DD06A2814D104E04F
:100CA000742810D07A280FD10DE044F400140AE023
:100CB00044F4801401E044F440147278824202D17A
:100CC00004F58014761C761C307866280BD013DC73
:100CD000582877D009DC002875D04528F6D046285A
:100CE000F4D047281AD19DE118E0632835D0642854
:100CF00079D0652812D195E1702873D008DC672877
:100D0000F1D069286FD06E280DD06F2806D1B5E0DC
:100D100073282CD0752875D0782874D05A46179926
:100D200090476D1C75E1C4F30250022809D00328D6
:100D30000DD0D9F8001004280DD00D6009F1040978
:100D400067E1D9F80010EA17C1E90052F6E7D9F8CF
:100D500000100D80F2E70D70F0E719F8041B8DF814
:100D6000001000208DF80100EA46012003E059F848
:100D700004AB4FF0FF3061074FF0000102D40DE0EB
:100D800008F101018846B9420FDA8045F8DB1AF80C
:100D900008100029F4D108E008F1010188468142D9
:100DA000FADB1AF808100029F6D105985B46A0EB8B
:100DB000080721463846179A00F094FA284400EBB9
:100DC000080507E04DE029E10DE01AF8010B5A464D
:100DD00017999047B8F10108F7D25B46214638468B
:100DE000179A13E142E00A220092C4F302524FF034
:100DF000000A022A08D059F804CB032A4FEAEC7102
:100E00000AD00DE029E02AE009F1070121F00702EC
:100E1000F2E802C1914609E00FFA8CFC4FEAEC714E
:100E2000042A03D14FFA8CFC4FEAEC71002907DA4F
:100E30000A460021DCF1000C61EB02012D2202E0E8
:100E4000220504D52B228DF80420012203E0E207BD
:100E500001D02022F7E7904659E00A2102E0102253
:100E60000DE010214FF0000A00910BE010224FF02E
:100E7000000A44F004040827009203E008224FF01F
:100E8000000A0092C4F30252022A05D059F804CB9A
:100E90000021032A08D009E009F1070121F0070227
:100EA000F2E802C1914605E01FFA8CFC042A01D148
:100EB0000CF0FF0C4FF00008220728D5702806D050
:100EC000009B83F0100353EA0A0305D00EE0402292
:100ED0008DF80420012208E05CEA010206D03022ED
:100EE0008DF804208DF8050002229046009B83F0C7
:100EF000080353EA0A030AD15CEA010201D162073E
:100F000005D530228DF804204FF001087F1E5828A7
:100F100004D034A003900EA802900DE036A0F9E7AB
:100F200053466046009AFFF7ABF984460398825C0B
:100F30000298401E029002705CEA0100F0D1029813
:100F400006A9081A00F1200A600702D524F48034AB
:100F500000E00127574502DDA7EB0A0000E0002072
:100F600000EB0A01009005984144401A0590E00307
:100F700006D45B462146179A059800F0B3F905445C
:100F8000002706E001A85A46C05D179990476D1CDE
:100F90007F1C4745F6DBE0030CD55B462146179ADC
:100FA000059800F09FF9054404E030205A4617994F
:100FB00090476D1C0099481E00900029F5DC08E060
:100FC000029802995A460078491C02911799904755
:100FD0006D1CBAF10001AAF1010AF1DC65E1000023
:100FE00009280100303132333435363738396162FF
:100FF00063646566000000003031323334353637C3
:1010000038394142434445460000000000F058F999
:101010000544761C307800287FF4ECAD19B02846E2
:10102000BDE8F08F620700D4062709F1070222F01D
:10103000070CFCE80223E14603F000485FEA080CD5
:1010400002D00FF2702C0DE05FEA045C02D50FF2C3
:10105000682C07E05FEAC47C02D00FF2602C01E04C
:10106000AFF2700C4FF0FF3823F00043CDF850C0C2
:1010700065280CD006DC452809D046281DD0472815
:101080003DD13DE0662818D067287ED138E00021A8
:10109000112F01DB112000E0781CCDE9000106A929
:1010A0000EA8FFF7EDFCDDE90F010E9A0391002178
:1010B000009207F1010A04914DE04FF000400097C3
:1010C000CDE9011006A90EA8FFF7DAFCDDE90F0251
:1010D00003920E9B11990022DDF80CA0009304925C
:1010E00011B9791C00EB010AB7EB0A0004D4C0F176
:1010F000FF3007F1010A0490AAEB0700019044E0D9
:10110000012F00DA01270021112F01DD112000E05D
:101110003846CDE9000106A90EA8FFF7B1FCDDE9CC
:101120000F010E9A0391002104910092BA46210703
:101130000CD40399514500DA8A46BAF1010F05DD56
:10114000009AAAF10101515C302908D0B84202DAB4
:1011500010F1040F06DA0121CDE9011015E0AAF122
:101160000101E9E7002805DC049901440491AAEB98
:10117000000102E0411C514500DD8A460499401AF5
:10118000401C01904FF000400290200704D40198C9
:10119000504501DBCDF8048000208DF84F00029807
:1011A0000DF14F07B0F1004F25D02B200E90029883
:1011B0004FF0020800280CDA404202902D200E90D9
:1011C00007E00A210298FFF726FA3031029007F86B
:1011D000011DB8F10001A8F10108F2DC0298002815
:1011E000EFD1791E0E980870307800F0200040F0A2
:1011F000450007F8020D12A8C01B00F1070814985B
:10120000007800B1012000EB0A01019801EBE071C8
:1012100005984144401A401E0590E00306D45B4601
:101220002146179A059800F05DF805441498007857
:1012300018B15A46179990476D1CE00324D55B46B8
:101240002146179A059800F04DF805441CE00498D3
:10125000002807DBDDE90301884203DD0098405CDC
:10126000179901E0179930205A469047049805F1E4
:101270000105401C04900198401E019004D12E20CD
:101280005A46179990476D1CBAF10001AAF1010A5C
:10129000DDDC05E017F8010B5A46179990476D1CE5
:1012A000B8F10001A8F10108F4DC5B462146179A69
:1012B0000598ABE62D0000002B0000002000000088
:1012C0002DE9F041044600251E461746880404D443
:1012D00005E039462020B0476D1C641EF9D528462C
:1012E000BDE8F0812DE9F041044600251E469046F8
:1012F000C80301D5302700E02027880404D505E085
:1013000041463846B0476D1C641EF9D52846BDE8F5
:10131000F081000010B5FFF755FBFFF73DFB90B1E2
:10132000012802D0022815D106E00CA0FFF714FB1B
:101330001048FFF793FB0EE00FA0FFF70DFB1548D9
:10134000FFF78CFB07E014A0FFF706FB0948FFF747
:1013500085FB00E000BF00BF10BD0000626F6F742E
:101360006C6F6164206A756D7020746F206170709D
:10137000200D0A0000000208626F6F746C6F6164D8
:10138000206A756D7020746F2061707020626B0D23
:101390000A00000000000608626F6F746C6F6164E1
:1013A000206A756D7020746F206C6F61640D0A0087
:1013B00070B504460D46E1B2054800F044FB00BF9D
:1013C0000721034800F0B7FB0028F9D0204670BD84
:1013D00000500040F0B503461C6A5D6A00200DE035
:1013E0000126864016403EB187000F26BE40B4431A
:1013F000860001FA06F63443461CB0B20828EFD343
:10140000082011E00126864016405EB1A0F10806D2
:10141000B7000F26BE40B543A0F10806B60001FA9A
:1014200006F63543461CB0B21028EBD31C625D6251
:10143000F0BDF0B504460D4616462168E26800206E
:1014400019E0012787401F409FB14FEA400C032756
:1014500007FA0CF7B943470005FA07F739434FEA93
:10146000400C032707FA0CF7BA43470006FA07F7C0
:101470003A43471CB8B21028E3D32160E260F0BDC4
:10148000F0B50C461546012C03D146681E43466054
:1014900002E046689E434660826800210DE0012616
:1014A0008E401E403EB14F000326BE40B2434E0068
:1014B00005FA06F632434E1CB1B21029EFD3826012
:1014C000F0BDFFF727FF00BFFEE72DE9F04104461E
:1014D0000F4615464FF00008A66B206C48B92068EF
:1014E00000282CD1A06800F031FD80460020A060CB
:1014F00025E07DB93946226C6068FEF7F2FE216C6A
:10150000606808446060D4E90101884217D320680C
:10151000606014E03946226CE068FEF7E2FE216C60
:10152000E068411AE1602168E068884203D2216CDA
:10153000A068411AE160022D01D106B1761E701C2F
:10154000A0634046BDE8F0810A490968096809B905
:10155000012100E0002121B14FF0FF31064A116066
:1015600006E004490968C968C868034A416811600F
:1015700070470000300000205C0000202DE9F04F93
:101580008CB0064600200A903EA090E8004CC0684F
:10159000CDE905BECDF810A007900FF2EC0ADAE90C
:1015A000000ACDE9020A0FF2E00ADAE9000ACDE901
:1015B000000A38480068C0F381000B900B9820B1F6
:1015C000012804D0022828D103E0334927E0334919
:1015D00025E03048001F006800F03F072D48001F3D
:1015E0000068C0F3881C2B48001F0068C0F301404E
:1015F000401C4FEA40092748001F006800F480089B
:10160000B8F5800F01D1254B00E0234BB3FBF7F079
:1016100000FB0CF0B0FBF9F101E01F4900BF00BF77
:101620001C480068C0F3031404A8055D21FA05F204
:1016300018480068C0F3822402A8055D22FA05F06C
:10164000099014480068C0F342341DF8045022FA8F
:1016500005F0089036B1012E06D0022E06D0032EDA
:101660000AD106E00A9108E00A9206E009980A9079
:1016700003E008980A9000E000BF00BF0A980CB091
:10168000BDE8F08F0000000000000000010203042C
:1016900006070809083802400024F40040787D015C
:1016A000074A02EB9011D1F8001800F01F03012245
:1016B0009A401143024B03EB9012C2F80018704796
:1016C00000300240074A02EB9011D1F8001800F0F8
:1016D0001F0301229A409143024B03EB9012C2F880
:1016E0000018704700300240074A02EB9011D1F811
:1016F000001800F01F0301229A401143024B03EB34
:101700009012C2F8001870470030024010B51D203A
:10171000404908704FF4807000F090F880B14FF4A9
:10172000807000F085F84CF23A3000F079F8012032
:10173000394908600020394908603648007810BDF2
:10174000022000F07BF878B1022000F071F84CF232
:101750003A3000F065F800203049086012202D4929
:10176000087008460078EAE7082000F067F878B1CA
:10177000082000F05DF84CF23A3000F051F80020FB
:101780002649086014202349087008460078D6E7E7
:101790004FF4007000F052F880B14FF4007000F088
:1017A00047F84CF23A3000F03BF800201B49086043
:1017B00017201849087008460078C0E7102000F08C
:1017C0003DF878B1102000F033F84CF23A3000F0D8
:1017D00027F800201149086015200E4908700846B6
:1017E0000078ACE7202000F029F878B1202000F044
:1017F0001FF84CF23A3000F013F800200749086057
:101800001620044908700846007898E701480078D7
:1018100095E7000020000020240000202800002080
:10182000024909688143014A116070473C2C01401C
:101830000149086070470000382C01400146002033
:10184000024A12680A4002B101207047342C01405C
:10185000002000213A4A126842F48032384B1A6064
:1018600000BF401C364A126802F4003119B94FF625
:10187000FF729042F5D1324A126802F400320AB97E
:1018800000BFFEE72E4A4032126842F080522C4BD5
:1018900040331A602B4A126842F44042294B1A60C6
:1018A000274A08321268264B08331A601A46126813
:1018B00042F400421A601A46126842F4A0521A60BA
:1018C000214A1B1F1A601A1F126842F080721B1FE8
:1018D0001A6000BF1A4A126802F00072002AF9D09A
:1018E000184A126842F48032164B1A6000BF154A3B
:1018F000526802F48032002AF9D0124A126842F487
:101900000032104B1A6000BF0E4A526802F40032D7
:10191000002AF9D00A4A0832126822F00302084B62
:1019200008331A601A46126842F002021A6000BFB9
:10193000034A0832126802F00802002AF8D0704701
:1019400000380240007000401964400910B5FFF7EC
:101950007FFF10BD2DE9F04704460D460027B8462D
:10196000B94600263349601A8C4235D00CDC324827
:101970002044E8B1B0F5806F1FD0B0F5006F21D0E2
:10198000B0F5406F32D122E0B0F5806F29D0B0F5CC
:10199000184F03D0B0F51C4F28D104E00320FFF707
:1019A000EDFD074623E00320FFF7E8FD07461EE0B4
:1019B0000220FFF7E3FD074619E00220FFF7DEFDF6
:1019C000074614E00220FFF7D9FD07460FE002208A
:1019D000FFF7D4FD07460AE00220FFF7CFFD0746D8
:1019E00005E00220FFF7CAFD074600E000BF00BF88
:1019F000E06800F4004070B1780000EB5500B0FBE7
:101A0000F5F64FF6F07006EA0008C6F3420948EA18
:101A10000900A0600CE007EB5500B0FBF5F64FF6AF
:101A2000F07006EA000806F00F0948EA0900A06015
:101A3000BDE8F0870078004000BCFFBF0146486861
:101A4000C0F308007047C1F308024260704700000D
:101A500010B504463349601A8C424DD00CDC324834
:101A60002044E0B1B0F5806F22D0B0F5006F31D0E6
:101A7000B0F5406F52D136E0B0F5806F45D0B0F58B
:101A8000184F03D0B0F51C4F48D11AE040F60410AF
:101A9000FFF72AFE40F60410FFF714FE3FE040F681
:101AA0001100FFF721FE40F61100FFF70BFE36E0B4
:101AB00040F61200FFF718FE40F61200FFF702FE94
:101AC0002DE040F60510FFF70FFE40F60510FFF77A
:101AD000F9FD24E040F61300FFF706FE40F6130080
:101AE000FFF7F0FD1BE040F61400FFF7FDFD40F6A8
:101AF0001400FFF7E7FD12E040F61E00FFF7F4FDCB
:101B000040F61E00FFF7DEFD09E040F61F00FFF77C
:101B1000EBFD40F61F00FFF7D5FD00E000BF00BF62
:101B200010BD00000078004000BCFFBFC16841F458
:101B30000051C160704710B5024602EB9110006879
:101B400001F01F040123A340184008B1012010BD7B
:101B50000020FCE710B500EB91521268C1F3044479
:101B60000123A3409A4300EB91531A6010BD70B556
:101B7000024600230024C1F38910105801F01F060B
:101B80000125B54000EA050302EB91500068C1F35E
:101B900004460125B54000EA050414B10BB101204B
:101BA00070BD0020FCE70A460021C16821F0040155
:101BB0001143C16070470A460021C16821F0080145
:101BC0001143C160704701460A69D1E9013098604C
:101BD000D1E9010358605068884201D1886850609B
:101BE000002008611068401E10601068704742684D
:101BF0004A6093688B6093685960916008610368DC
:101C00005B1C03607047000070B5FEF723FB0446C1
:101C1000102C16D304F1E02090F8F053154800780A
:101C2000854201DB012000E0002050B900BF2020E8
:101C300080F31188BFF34F8FBFF36F8F00BF00BFDA
:101C4000FEE70D48006800F4E0600C49096888422E
:101C500001D8012000E0002050B900BF202080F30F
:101C60001188BFF34F8FBFF36F8F00BF00BFFEE738
:101C700070BD00006C0000200CED00E07000002042
:101C80001D48006818B101201C49086032E000209E
:101C90001A4908601A480068B0FA80F0C0F11F01C4
:101CA00001EB8100174A52F8200008B1012000E042
:101CB000002050B900BF202080F31188BFF34F8F60
:101CC000BFF36F8F00BF00BFFEE701EB81020D4B3A
:101CD00003EB820042685268426000F108024368E8
:101CE000934202D14268526842604268D268064B11
:101CF0001A6000BF70470000640000205000002000
:101D000044000020780000202C0000202DE9F05F26
:101D100007468A4690461E463C4654B900BF2020DE
:101D200080F31188BFF34F8FBFF36F8F00BF00BFE9
:101D3000FEE7BAF1000F01D1206C08B9012000E0E4
:101D4000002050B900BF202080F31188BFF34F8FCF
:101D5000BFF36F8F00BF00BFFEE7022E02D1E06B22
:101D6000012801D1012000E0002050B900BF20204F
:101D700080F31188BFF34F8FBFF36F8F00BF00BF99
:101D8000FEE7FFF741FF00BF2021EFF3118081F351
:101D90001188BFF34F8FBFF36F8F00BF0546A06B55
:101DA000E16B884201D3022E23D194F945B032462B
:101DB00051462046FFF789FB0BF1010088B9606AA4
:101DC00008B9012000E0002080B904F1240000F0EF
:101DD00021F958B1B8F1000F08D00120C8F800006F
:101DE00004E00BF1010040B284F845004FF0010916
:101DF00001E04FF0000900BF85F3118800BF48469D
:101E0000BDE8F09F2DE9F0414FF00008444800681C
:101E1000002877D143480068451C4248056015BB3F
:101E200041480068006808B9012000E0002050B96E
:101E300000BF202080F31188BFF34F8FBFF36F8F57
:101E400000BF00BFFEE738480768384800683649D9
:101E500008603648076036480068401C344908600E
:101E6000FFF772FB00BF3348006885423CD300BFD8
:101E70002D480068006808B9012000E0002020B16A
:101E80004FF0FF302B4908602DE027480068C068FC
:101E9000C4686668B54202D22648066023E0201D69
:101EA000FFF791FEA06A18B104F11800FFF78BFE4E
:101EB00094F82C10012088401F49096808431E49E6
:101EC0000860E16A01EB81011C4A02EB8100211DDF
:101ED000FFF78DFE1A49E06A0968C96A8842C7D3CC
:101EE0004FF00108C4E700BF15480068C06A00EB66
:101EF0008000124951F82000012801D94FF0010853
:101F000005E0FFE70F480068401C0E4908600E48D6
:101F1000006808B14FF001084046BDE8F0810000BC
:101F20006400002040000020300000203400002029
:101F3000540000205C0000204400002078000020B5
:101F40002C0000204C0000205000002070B50546F9
:101F50002C460026002D55D02B480068844201D124
:101F6000012000E0002050B900BF202080F311883C
:101F7000BFF34F8FBFF36F8F00BF00BFFEE7206D31
:101F800050B900BF202080F31188BFF34F8FBFF3FB
:101F90006F8F00BF00BFFEE7206D401E2065E16C23
:101FA000E06A88422ED0206D60BB201DFFF70BFE3B
:101FB00078B9E06A00EB8000144951F8200040B97C
:101FC00094F82C1001208840114909688143104879
:101FD0000160E06CE062E06AC0F10800A06194F882
:101FE0002C10012088400A49096808430849086004
:101FF000E16A01EB8101054A02EB8100211DFFF737
:10200000F6FD0126304670BD2C000020780000202F
:102010004400002070B50646F068C46854B900BF9B
:10202000202080F31188BFF34F8FBFF36F8F00BF65
:1020300000BFFEE704F11800FFF7C5FD1548006872
:10204000A8B9201DFFF7BFFD94F82C10012088408F
:1020500011490968084310490860E16A01EB8101F0
:102060000E4A02EB8100211DFFF7C1FD04E004F1DF
:1020700018010B48FFF7BBFD0A49E06A0968C96A05
:10208000884204D9012501200749086000E00025A5
:10209000284670BD64000020440000207800002025
:1020A000400100202C00002050000020CC2000081F
:1020B0000000002078000000780900084421000892
:1020C00078000020080500008809000800000000D2
:1020D00000000000000000000000000008000000F8
:1020E0000100000000000000000000001D000000D2
:1020F00000000000000000000000000000000000E0
:1021000000000000000000000000000000000000CF
:1021100000000000000000000000000000000000BF
:1021200000000000000000000000000000000000AF
:1021300000000000AAAAAAAA0000000000000000F7
:04214000000000009B
:040000050800018965
:00000001FF
